:10000000E07F0010CD0000001D0100001F01000076
:100010002101000023010000250100000000000074
:1000200000000000000000000000000027010000A8
:1000300029010000000000002B010000AD39010083
:100040002F0100002F0100002F0100002F010000F0
:100050002F010000A54B01000D4C01002F010000F5
:100060002F0100002F0100002F0100002F010000D0
:100070002F0100002F0100002F0100002F010000C0
:100080002F0100002F0100002F0100002F010000B0
:100090002F0100002F0100003D4601002F0100004C
:1000A0002F0100002F0100002F0100002F01000090
:1000B0002F0100002F0100002F0100002F01000080
:1000C0002F0100002F0100002F01000000200C492B
:1000D0000C4A914204D0914202D208600431FAD312
:1000E00009490A4A0A4B9A4206D09A4204D2086841
:1000F000106004310432F8D30648804706480047B0
:10010000E8000010E8130010A8CA01000000001069
:10011000E80000104581010089090000FEE7FEE7C4
:10012000FEE7FEE7FEE7FEE7FEE7FEE7FEE7FEE7A7
:10013000026813780BB1013202601846704701481B
:1001400004F0D4BD7F95010010B5044668B1007875
:1001500005F0AFF8592809D0207805F0AAF8A0F1E9
:100160005403584240EB030010BD10BD012010BDE8
:100170000A2004F093BD00B50B4B95B01B781BB95A
:100180000A4804F0B3FD0CE068464F2109F080FCFA
:1001900038B9074804F0AAFD684604F0A7FDFFF748
:1001A000E7FF15B000BD00BFE80000109695010004
:1001B000A595010010B5044650B1064804F096FD1F
:1001C000054B53F8240004F091FDBDE81040CFE743
:1001D00010BD00BFAB9501004800001010B504F041
:1001E0006BFD05F066F85928044601D04E28F6D17B
:1001F000204604F053FDFFF7BBFFA4F15902504223
:1002000040EB020010BD38B50C4804F06FFD04F05F
:1002100067FD0A4D044602E0094804F067FD15F841
:10022000013B002BF8D1512C05D0A4F171014842BB
:1002300040EB010038BD012038BD00BF5C940100D7
:10024000B995010013B5094C094801A96A46009403
:1002500009F0E7FD38B9A3780199064859434908E0
:1002600004F09AFE01E0FFF7A5FF1CBDF80800109E
:10027000BC950100BD95010010B50F4C63780BB91A
:1002800013F0F6FD0D4804F031FD00200C4909F093
:1002900032F9D0F1010338BF002323702BB9064B8C
:1002A0005B7823B9FFF786FF01E0FFF7CBFF01235F
:1002B0006370BDE810405BE7E8000010CB950100DB
:1002C000F808001013B50446A0680DF107010122DB
:1002D0006B4609F0BFF918B9009B012B06D001E06D
:1002E0000123236000238DF8073005E09DF80730D7
:1002F000002BE9D00D2BE7D09DF807001CBD70B591
:100300002548ADF51E7D04F0F1FC4F2189A804F0CD
:1003100007FD89A804F0A3FE03780146002B37D01F
:100320006846012209F0F6F8044610B1FFF742FFD3
:100330002EE01A4804F0DAFC684689A950229DABE9
:1003400009F088F90546A8B1FFF734FF18E089AE37
:10035000705D04F0A3FC735D0A2B0AD10134132CE9
:1003600007DDFFF750FF18B151239D93002404E0EF
:10037000044601359D9B9D42E9D39D9B502BDBD0CC
:10038000074804F0B3FC684609F045FBFFF7F0FEB0
:100390000DF51E7D70BD00BFE0950100EC950100DC
:1003A0000096010010B52648ADF5207D04F09EFCB6
:1003B0004F2189A804F0B4FC89A804F050FE03780A
:1003C0000446002B38D068462146032209F0A2F8E3
:1003D00088B105280CD11B4804F088FCFFF7FEFE0D
:1003E000002829D068462146072209F093F810B169
:1003F000FFF7E0FE20E000239D939E93124A6B449A
:100400009F939DAB1360114A1360114A114B1A6000
:10041000114B124A1A6008F0D5F89D9B23B9684623
:1004200009F073FD0E4800E00E4804F05FFC6846DA
:1004300009F0F1FAFFF79CFE0DF5207D10BD00BF1D
:100440001696010022960100380B0010340B0010A4
:10045000C5020000300B00103C0B001069040000C6
:100460004B9601005796010030B50C46496885B09F
:10047000019031B901256560A06809F0A9FB00B1C0
:100480002560236873B9019B002B0BDDA06801A9CF
:10049000012203AB09F09AF910B9039B012B01D09B
:1004A00001232360206805B030BD38B50D4D0446EA
:1004B000AB78ABB96B689BB9002805DB14F0B4FDD1
:1004C0008442A8BF002400E01C4620462C7214F091
:1004D000ADFD054B1860204614F0AEFD034B1860CF
:1004E00038BD00BFE8000010E4080010E00800106C
:1004F00010B5064CA07838B9636833B940F234407F
:1005000005F020FD606010BD002010BDE800001067
:1005100010B5044C606818B106F0D0FC002363608D
:1005200010BD00BFE800001010B5ADF5207DFFF74D
:10053000DFFF10B9FFF703FE49E0264804F0D6FBC1
:100540004F218AA804F0ECFB8AA804F088FD037808
:100550000446B3B101A82146012208F0DBFF40B9EF
:1005600001A809F058FA1C4804F0C0FBFFF736FE5A
:1005700038B101A821460A2208F0CCFF20B1FFF7CC
:1005800019FEFFF7C5FF22E0144B5C68144B2046B0
:10059000196804F053F906E001A89FA901229EAB57
:1005A00009F014F930B9204604F054F99F9000285E
:1005B000F2D102E0FFF7FEFD02E00A4804F096FBEC
:1005C00001A809F028FAFFF7A3FFFFF7D1FD0DF509
:1005D000207D10BD709601007F960100E80000109C
:1005E000E40800109F96010070B515460022C0F87F
:1005F0001C23049AC0F82433C0F8202304460E4676
:1006000004F050F904F1080031462A46BDE8704074
:1006100013F0DABBF8B507460E4605F0EEF8194BB5
:100620000546186824E00A2B08BF013004F034FEA8
:1006300003780446232B17D039462A4605F024F9BF
:1006400090B9635D3D2B0FD1681C201804F024FE87
:100650000346194613F8012B0A2A01D0002AF8D1C3
:1006600076B10B1A3360F8BD20460A2105F0CDF8AB
:1006700030B103781BB1FF2BD5D10020F8BD18464F
:10068000F8BD00BFD800001037B50C4601A91546CB
:10069000FFF7C0FF014608B920700CE0019B013D47
:1006A000AB42C8BF0195019A204605F07BF8019B3B
:1006B0000022E25401203EBDF8B504460D46164620
:1006C0001F4603E014F8010B3946B0472B689C42E3
:1006D000F8D32C60F8BD30B5B0F1FF3F85B00C46C3
:1006E0001ED1D1F81C33D4F82423CB1803F58E7314
:1006F00004A941F8043D04F58E7004F108031AB111
:10070000274AFFF7D9FF04E000932246244B04F068
:10071000CDF84FF0FF3004F1080113F05EFB3DE02F
:1007200000280BDBD1F81C33B3F5FF7F09DCCA18B6
:10073000013382F81C01C1F81C3302E010F1020FF2
:1007400007D0D4F820334BB3D4F81C33B3F5887FEB
:1007500024DBD4F8242304F5077304A941F8043DED
:1007600004F58E7004F108031AB10D4AFFF7A4FFD7
:1007700004E0009322460A4B04F098F8039904F52C
:100780008E7504F547722846521A04F0B4FDD4F869
:100790001C33ED18039BED1AC4F81C5305B030BD93
:1007A000DB3D010070B5ADF5207DFFF7A1FE10B96E
:1007B000FFF7C5FC55E02C4804F098FA4F218BA8B0
:1007C00004F0AEFA8BA804F04AFC037801463BB172
:1007D00002A8012208F09EFE034620B1FFF7EAFCC2
:1007E000FFF796FE3DE0214A546801220092204A1C
:1007F0000C3411681F4A20461268FFF7F5FE02A864
:100800008BA950229FAB08F025FF064608B9054684
:100810000BE0FFF7CFFC0DE08BAB585D20B10D284E
:1008200002D02146FFF757FF01359F9B9D42F3D32E
:10083000502BE4D000202146FFF74DFF21464FF01A
:10084000FF30FFF748FF02A809F0E5F80A4B0B4814
:10085000002E08BF184604F049FAFFF759FEFFF7CB
:1008600087FC0DF5207D70BDDF960100E8000010CB
:10087000E4080010E0080010AE960100BE960100EA
:1008800008B510B903F052FF08B905F093FA034B0D
:10089000587AD0F1010038BF002008BDE8000010F0
:1008A00070B5061E0C4615461CDB14F0BDFB8642D7
:1008B0001BDA304614F0BAFB07E0A3F12002D2B2F3
:1008C0005D2A98BF05F8013B013C10F8013B5A1E18
:1008D000D2B2FD2A03D80A2B01D0002CEDDC002077
:1008E000287070BD4FF0FF3070BD4FF0FF3070BD0D
:1008F00030B51E4D95B01E4804F0F8F9287A04F082
:1009000053FA00244F2120466A46FFF7C9FF00280A
:100910000DDB184804F0EAF9204604F045FA1648C1
:1009200004F0E4F9684604F0E1F90134EAE7134819
:1009300004F0DCF904F0D4F92F2804460DDD14F09E
:1009400073FB2F30A04208DB2046303C04F0A6F9B0
:10095000E0B22872FFF7A9FD02E0094804F0C6F9E9
:10096000084804F0C3F915B030BD00BFE80000101E
:10097000EE960100FD960100059701001197010018
:1009800024970100839701002DE9F04FABB013F0DD
:1009900080F8994B00221A60984829A9FFF73AFE7F
:1009A000974C10B1FFF7D0FBA072964829A9FFF72A
:1009B00031FE10B1FFF7C8FBE072934829A9FFF799
:1009C00029FE10B1FFF7C0FB2073904829A9FFF75B
:1009D00021FE18B1002104F04DFB60738C4829A959
:1009E000FFF718FE18B1002104F044FB207289497A
:1009F00089481022FFF748FE884829A9FFF70AFE18
:100A000020B1002104F036FB854B1870854829A9D8
:100A1000FFF700FE844E18B1002104F02BFB30607C
:100A2000306804F02DF9814804F060F913F0F3F810
:100A3000207AFFF73AFDE37A33B904F0DAFF7C4815
:100A400004F054F905F0A8F8237B0BB9FFF714FC68
:100A5000A37A13B1774804F049F9637B0BB1764D63
:100A60005D43764805F0E8F8FFF785FB744804F02D
:100A70003DF904F021F904F01CFC013D482806462C
:100A800001D03F2803D16F4804F030F944E25228E6
:100A900007D00DB9637B23B9677ADFF86481002F33
:100AA0003AD06768564E17B1FFF749FB31E0664808
:100AB00004F01CF9654B18680368B3F1FF3F25D0BB
:100AC00003F07EFDB0F1FF3F20D001237372B773B6
:100AD000B37004E0A37B13B903F010FD20B900202C
:100AE000FFF7CEFE0028F5D0637A5BB1584804F0DA
:100AF000FDF8584D04F0E0F8042803D0637A0BB1F8
:100B0000013DF7D203F018FE0023A370524804F011
:100B1000EDF800236372A0E7112E02D112F0D6FF88
:100B2000FAE1502E62D1FFF7E3FC002800F0FF80CD
:100B3000D8F80460494BDFF81491009706F10C08CF
:100B400040461A68D9F800103B46FFF74DFD44486F
:100B500004F0CCF8D6F82833B3F5887F03D11320FE
:100B600004F09CF80127DFF800B1D6F82833B3F57C
:100B7000FF7F0DDA04F0A0F8B0F1FF3F824603D00A
:100B8000BBF1000F10D105E0BBF1010BEDD101E08D
:100B90004FF0FF3A47B16FF001004146FFF79BFD70
:100BA000112004F07BF80027BAF10D0F08D0BAF13C
:100BB000000FCFDDBAF1040F14BF5046002002E051
:100BC0004FF00A0A50464146FFF785FDBAF1040F7F
:100BD000C0D141464FF0FF30FFF77DFD316AD9F8B3
:100BE00000302048C91A04F0E2F99DE0422E3DD1C0
:100BF000FFF77EFE31E700BFE01300102C970100E5
:100C0000E8000010359701003B9701004397010071
:100C10004F970100E8080010549701005D9701000C
:100C2000DC08001065970100000000106E970100BD
:100C300085970100A097010020A10700B39701004C
:100C400075940100A5940100B8970100E408001014
:100C5000C7970100404B4C00E4970100E0080010EA
:100C6000F197010029980100E09304004C2E24D153
:100C7000FFF73EFCB8B1AA4804F038F8D8F8046091
:100C8000A84B3046196803F0D9FD01E004F006F8DE
:100C9000304603F0DFFD0028F8D1A34804F026F821
:100CA000FFF736FC01E0FFF74AFAA04804F01EF80F
:100CB00004F016F80428FBD1CFE6452E01D04B2EC8
:100CC00038D1FFF715FC002831D04B2E984E0FD1AC
:100CD000984F6068396803F0B1FD01236068964A57
:100CE00000930C3039681268FFF77EFC934B0FE0DD
:100CF0008C4F6068396803F0A1FD012300936068A0
:100D00008F4B0C301A6839680023FFF76DFC8D4B50
:100D10008D4A336063688D4913608D4A0C331160CE
:100D20008C4A136007F04EFCFFF7F2FB95E6FFF7E5
:100D300006FA92E6442E40F0AD80FFF71CFAFFF76A
:100D400017FA17A8844908F0F1FF0646002840F07A
:100D5000AD80074617A81EA909F019F8002840F031
:100D60008E809DF88130002B00F089802021332275
:100D700003A804F0B8FABDF87C100422490A01F572
:100D8000F6610C3124A804F047F80422014603A8B8
:100D900004F01DF9BDF87C10022249094FF02F081C
:100DA00001F00F0124A88DF8108004F035F802221C
:100DB00001460DF1110004F00AF9BDF87C10022281
:100DC00001F01F0124A88DF8138004F025F80222F9
:100DD000014605A804F0FBF8BDF87E100222C90AFE
:100DE00024A804F019F8022201460DF1170004F0BE
:100DF000EEF8BDF87E103A234909022201F03F01C6
:100E000024A88DF8193004F007F8022201460DF1EC
:100E10001A0004F0DCF89DF8803013F0100F04D0B5
:100E20000DF11E004D49052207E01E9924A803F08C
:100E3000A3FF092201460DF11E0004F0C8F80C22A0
:100E40000DF181010DF12A0004F0C1F8002303A87F
:100E50008DF8363003F04AFF0A2003F01FFF9DF89B
:100E6000803013F0100F18BF01360137142F7FF7B1
:100E700071AFFFF7C8F9002833D107466AE7FFF7DB
:100E800077F9304603F090FF354803F02FFFFFF766
:100E9000D9F926E04D2E02D1FFF7EEF9DDE5552E0A
:100EA00009D10020014608F026FB10B1FFF782F9B6
:100EB000D3E52C48CFE5432E16D12B4803F016FF7F
:100EC0004F2103A803F02CFF03A804F0C8F803780F
:100ED000002B3FF4C2AD03A808F0ACFD08B1FFF74A
:100EE00069F9FFF745F9B8E54F2E02D1FFF75AFC33
:100EF000B3E5532E02D1FFF717FBAEE5562E02D114
:100F0000FFF7FDF9A9E5462E02D1FFF74BFAA4E55C
:100F1000B6F1FF3F7FF4A1AD0120FFF7B1FCA8E5DA
:100F20003E980100E4080010519801006298010009
:100F3000300B0010D8000010DC0000103101000060
:100F4000E008001055480000380B0010D7060000DC
:100F50003C0B0010340B0010BC950100739801008D
:100F60007998010082980100989801000000000023
:100F700010B5024690F909100023012003E0B2F9F0
:100F800008400133604302328B42F8DB10BD034B53
:100F90009A6A02B100B99862704700BFF800001069
:100FA000F8B5457A0E466BB2044600220EE0B4F95D
:100FB0000AC036F9027BBC4502DB0234002F04DC98
:100FC0000520FFF7E4FF0020F8BD01329A42EEDB76
:100FD0006DB2013D31F9152000EB43045D1E013A6D
:100FE000083401EB450106E031F9025D34F9026D88
:100FF000013D06FB0252013B002BF5DC037A042B7A
:1010000003D1006900EBC200F8BD032B06BF0069E5
:1010100000EB82000020F8BD073020F00700704789
:1010200008B517F059FD08BD074B586A1A8E82188B
:101030001178134601320A2901D1134601E0002933
:10104000F6D1181A80B27047F8000010032814D0A7
:10105000222812D0062810D000F17D03DBB27A2BB3
:101060000DD8084B833803EB001090F90800A0F16D
:101070000403584240EB03007047012070470020F2
:10108000704700BFA898010010B500E0013A04784D
:1010900003460130002CF9D107E0A0F12004E4B2AE
:1010A0005E2C9CBF03F8010B013A11F8010B08B14B
:1010B000002AF2DC00221A7010BD2DE9F8430C461C
:1010C000914603F0CCFF0025804607460BE0013730
:1010D000072D04D017F8013C6355013503E00320C8
:1010E000FFF755FF06E018F805003E4603F07BFFCA
:1010F0000028ECD133783A2B0DD0242B08D1062DC3
:1011000003DC63550136013502E00320FFF73FFFA2
:101110003378282B07D1062D02DC6355013502E018
:101120000320FFF734FF00236355C9F80050BDE8E2
:10113000F883174B2DE9F0471F6982460C46013FA3
:101140000025994619E0EE1976104FF0140808FBB7
:1011500006F8D9F80C005146404404F07FFB002803
:1011600001DD771E09E001D0751C06E004B12660A0
:10117000D9F80C004044BDE8F087BD42E3DD1CB166
:1011800025600020BDE8F0872046BDE8F08700BF5D
:10119000F8000010164B2DE9F0479F6882460C4678
:1011A000013F0025994619E0EE1976104FF0180816
:1011B00008FB06F8D9F804005146404404F04EFB01
:1011C000002801DD771E09E001D0751C06E004B19E
:1011D0002660D9F804004044BDE8F087BD42E3DD55
:1011E0001CB125600020BDE8F0872046BDE8F087EF
:1011F000F80000104FF6E853994210B50C4608DC91
:10120000043106F0AEF828B1048000230419A3705D
:1012100010BD002010BD01460020EBE738B50546A3
:101220000088FFF7F8FF044620B10230A91C2A8885
:1012300004F061F8204638BDF8B5044623880888D4
:101240000E46C018FFF7E7FF054658B1871CA11CE2
:101250002288384604F04FF82088B11C38183288AC
:1012600004F049F82846F8BD70B5064608460D4614
:10127000FFF7D1FF044620B1023031462A4604F080
:101280003AF8204670BDF8B5038821EAE171994229
:10129000B4BF0E461E46B718B742B8BF37469F4286
:1012A000D4BFC6EB0707C6EB030705463846FFF772
:1012B000B2FF044638B1002F05DDA91C02308919A0
:1012C0003A4604F018F82046F8BD38B58B68054654
:1012D0000C469BB9206849680388994208D140317F
:1012E000FFF788FF08B1206002E00123A36038BD4A
:1012F00063682268D21801339570636038BDF7B512
:10130000174C01A9A668FFF745FF254620BBA0683A
:10131000FFF782FE013607463046FFF77DFE874223
:1013200003460BD018216068594306F01AF80446AA
:1013300018B90220FFF72BFE0FE06860019A6C6875
:10134000182303FB0244A968E0188A1A5A4321466D
:1013500003F0D1FFAE6000E000242046FEBD00BFD8
:10136000F8000010F8B5374DE86903F095FF044622
:1013700000782E4608B92C62F8BD03F058FE237899
:1013800000282FD0302B0FD16378782B03D0582B27
:101390000AD100E03C46671C60783D4603F023FE1E
:1013A0000028F7D11BE02C466378651CA3F13002BE
:1013B000D2B2092AF7D92E2BF5D0652B01D0452BB7
:1013C0000DD16A786B1C2B2A01D02D2A00D1013354
:1013D0001D4613F8012B303AD2B2092AF8D93562EA
:1013E0000120F8BD184603F010FE002825D000E0CB
:1013F0002C466078651C03F0F6FD0028F8D12B78A8
:10140000282B13D03A2B02D0242B13D103E0013523
:1014100035620720F8BD6A786B1C282A03D1033493
:1014200034620620F8BD33620320F8BD0135356211
:101430000520F8BD35620420F8BD631C2B622078BE
:10144000F8BD00BFF800001010B50A4C94F89031B8
:10145000834201D0012008E0236AE361FFF782FFA5
:10146000022884F8900103D10138BDE810408EE5D0
:1014700010BD00BFF800001010B5FFF7E5FF2820F1
:10148000BDE81040E0E708B5054B93F89031834282
:1014900003D1FFF7D9FF012008BD002008BD00BF20
:1014A000F800001008B5D420FFF7CEFF074B5A6CA8
:1014B000002A05DC1320FFF76AFD4FF6FF7008BD18
:1014C000511E3732596433F8120008BDF80000107D
:1014D00038B50C4CD320FFF7B7FFA56C072D05DD01
:1014E0001420FFF754FD4FF6FF7038BDFFF79CFD49
:1014F00005F14003013524F81300A5644FF6FE7092
:1015000038BD00BFF8000010CD2008B5FFF79CFFE4
:1015100001A1D1E9000108BDEA2E4454FB21094094
:101520002DE9FF411C4C94F89051072D01D001206A
:101530002BE0E06901A903AAFFF7BFFD2846FFF7EA
:1015400083FF6369A669FBB1013E00251AE0AF196C
:101550007F104FF00A0808FB07F8606901A94044B2
:1015600004F07CF9002801DD7E1E0BE001D07D1C1B
:1015700008E0094B5B69434418894FF6FD739842B4
:1015800007D101E0B542E2DD1620FFF700FD4FF67E
:10159000FD7004B0BDE8F081F800001010B50B4CF0
:1015A000C820FFF751FF94F89031072B06D1FFF7C1
:1015B000B7FFA36A33B9A4F84E0003E04FF0FF333E
:1015C000A4F84E304FF6FE7010BD00BFF8000010BA
:1015D00010B5B120FFF738FFBDE81040A0E770B5A7
:1015E000B020FFF731FFFFF79BFF0A4C0646656C02
:1015F000072D05DD1220FFF7CAFC4FF6FF7607E046
:10160000FFF712FD05F13803013524F81300656476
:10161000304670BDF80000109C2008B5FFF714FF9D
:101620004FF6FF7008BD10B58320FFF70DFF044B88
:1016300000229A645A641A64BDE8104070E700BF43
:10164000F800001010B5044604F0D7F80146204613
:10165000BDE8104008E608B5F720FFF7F5FE0FF0EB
:1016600015FC16F039FF08BD7FB5ED20FFF7ECFE45
:1016700001A812F060FA01A8FFF7E4FF07B000BD6F
:1016800008B5B820FFF7E0FE03F016FB16F024FFC4
:1016900008BD70B5054686B03220FFF7BCFD044694
:1016A000002800F08880861C20213222304603F07A
:1016B0001AFE0C22304605F1090103F088FC2B7A52
:1016C000042203F01003002B0CBF2D2344232374AA
:1016D0002B7A01A803F00103002B0CBF2D2352230A
:1016E00063742B7A2F2603F00203002B0CBF2D23EB
:1016F0004823A3742B7A03F00403002B0CBF2D2383
:101700005323E3742B7A03F02003002B0CBF2D230B
:1017100041232375A988490A01F5F6610C3103F0CC
:101720007BFB0422014604F1160003F050FCA67670
:10173000A9880222490901F00F0101A803F06CFBFE
:101740000222014604F11B0003F041FC6677A988E0
:10175000022201F01F0101A803F05EFB02220146F4
:1017600004F11E0003F033FCE9880222C90A01A833
:1017700003F052FB0222014604F1210003F027FC92
:101780003A2384F82330E98801A8490901F03F0190
:10179000022203F041FB0222014604F1240003F07F
:1017A00016FC296801A803F0E7FA0922014604F1B2
:1017B000270003F00CFC204606B070BD38B5084B7E
:1017C00001245B6A1D189D4207D918460A2104F0BE
:1017D0001CF810B1431C0134F5E7204638BD00BFAA
:1017E000F8000010962008B5FFF72EFE03F090FADF
:1017F0004FF6FE7008BD952008B5FFF725FE03F0F3
:101800008BFA4FF6FE7008BD08B58C20FFF71CFE62
:1018100012F006FF16F060FE08BD892008B5FFF73C
:1018200013FE12F08FFF4FF6FE7008BD08B586203C
:10183000FFF70AFE12F0C8FE16F04EFE08BD2DE9B5
:10184000FF41824C94F89051062D07D0222D03D0F1
:10185000032D40F0BF803BE00025B5E0694602AAB9
:10186000E069FFF72AFC2846FFF7EEFD68460021F5
:10187000FFF75FFC0546F0B10DF10A0700260DE009
:1018800000F0C4F9FFF7CCFB27F8020F95F90930F7
:1018900001369E4202D02C20FFF7D6FD95F9093083
:1018A0009E42EDDB284603A9FFF77AFB0646292076
:1018B000FFF7CAFD02E00420FFF769FBA36A2BB91A
:1018C0003068634B002808BF184618E0604816E0EF
:1018D0006946E06902AAFFF7F0FB2846FFF7B4FD6E
:1018E00068460021FFF756FC20B1037A032B04D190
:1018F000006904E00420FFF74AFB04F5CC70FFF711
:101900008DFC76E0F06903F0AAFBF061461C0CE068
:101910000A2B55D0002B53D0137816460132222BB8
:10192000F6D17378222B04D1023633780BB13246CC
:10193000F2E73378002B43D0301AFFF76CFC0746F0
:1019400008B902203DE0E269C31C01320EE0222901
:1019500002F1010006D15278222A0CD103F8012CA1
:10196000421C02E003F8011C02460133117803F126
:10197000FF3E0029EBD1BB1CC3EB0E039BB23B80A7
:101980000022FB189A709DB139462846FFF754FC97
:101990008046384605F092FA284605F08FFAB8F1ED
:1019A000000F04D10220FFF7F2FA454646E0474611
:1019B000E661013626622220FFF746FD3D4603E040
:1019C0000120FFF7E4FA20E094F890311F4E222B1B
:1019D00098D01AE005F17D03DBB27A2B0DD81D4BB0
:1019E000833D03EB051595F90830042B03D1EB6813
:1019F0009847054609E00E2000E00120FFF7C7FAEE
:101A00000020FFF708FC05461BE0BDB194F89001EB
:101A10002B2816D1FFF718FDFFF711FF044668B118
:101A200028462146FFF708FC0646204605F046FA00
:101A300026B1284605F042FA354602E00220FFF7BB
:101A4000A6FA284604B0BDE8F08100BFF8000010F7
:101A500090020010A898010070B50546FFF7EFFE50
:101A60000446B8B102882B88A81CA11C9A4228BF42
:101A70001A4603F02AFC064640B92A8823889A426F
:101A800004D001D9461C01E04FF0FF36204605F096
:101A900015FA00E00646304670BDF8B5594E96F886
:101AA0009001FFF7D3FA00284ED0FFF7C8FE074693
:101AB000002800F0A28096F890013D2804D03E282E
:101AC0000AD03C2837D119E0FFF7BEFC3846FFF7B3
:101AD000C3FF002832D12BE0FFF7B6FC3D20FFF713
:101AE000D2FC28B13846FFF7B7FF002820DA25E0FE
:101AF0003846FFF7B1FF00281ADC1FE0FFF7A4FC0F
:101B00003D20FFF7C0FC28B13846FFF7A5FF0028AD
:101B100014DC0DE03E20FFF7B6FC20B13846FFF79D
:101B20009BFF58B104E03846FFF796FF002805DA1E
:101B30000024354D04E00120FFF729FA0024002598
:101B4000384605F0BBF95AE000F00CFA044696F866
:101B500090010D463D2804D03E280DD03C284ED1A2
:101B600022E0FFF771FC00F0FDF902460B4620462B
:101B7000294616F07FFF3CE0FFF766FC3D20FFF7AB
:101B800082FC40B100F0EEF902460B4620462946A1
:101B900016F08EFF2DE000F0E5F902460B462046D8
:101BA000294616F08FFF24E0FFF74EFC3D20FFF79B
:101BB0006AFC40B100F0D6F902460B4620462946A1
:101BC00016F06CFF15E03E20FFF75DFC48B100F019
:101BD000C9F902460B462046294616F04BFF60B96C
:101BE00008E000F0BFF902460B462046294616F0F1
:101BF0004BFF10B10024044D01E0002400252046D5
:101C00002946F8BDF80000100000F03FF8B5FFF7D6
:101C100044FF1B4B044693F890010D468D2802D0DB
:101C2000C9282BD10EE0FFF70FFCFFF736FF00228B
:101C300006460F4620462946002316F01BFF70B1CA
:101C4000002018E0FFF700FCFFF727FF0022064600
:101C50000F4620462946002316F00CFF50B1002203
:101C600000233046394616F005FFD0F1010038BF99
:101C7000002000E0012016F02FFCCAE72046F8BD46
:101C8000F800001070B55E4B86B093F89041282C98
:101C90000FD007D8042C42D0052C55D0012C40F091
:101CA00087800FE07E2C26D0C72C15D02D2C7FD11D
:101CB0002CE02046FFF7C8FBFFF7A8FF05460E46BD
:101CC000292006E0D86905A903F006FA05460E4664
:101CD0002046FFF7B9FB8EE02046FFF7B5FBFFF784
:101CE000D1FF0022002316F0C5FE002800F08180FD
:101CF0000025444E7FE02046FFF7A6FBFFF7C2FF1A
:101D000016F0EAFEC04316F0E7FB61E02046FFF75D
:101D10009BFBFFF7B7FF054601F100466BE0D86972
:101D200002A904AAFFF7C9F92046FFF78DFB02A814
:101D30000021FFF72FFA28B1037A042B02D105699D
:101D4000466958E004204CE0D869694604AAFFF7C8
:101D5000B4F92046FFF778FB68460021FFF7E9F960
:101D6000054618B10DF1060600240FE004203DE001
:101D7000FFF74CFFFFF754F926F8020F95F90930E9
:101D800001349C4202D02C20FFF75EFB95F909300C
:101D90009C42EDDB284602A9FFF702F90446292000
:101DA000FFF752FB14B12568666824E0254621E060
:101DB00004F17D03DBB27A2B0DD8134BA4F183021F
:101DC00003EB021393F90820032A04D1DB68984738
:101DD00005460E460FE02046FFF738F9054620B1CC
:101DE0000820FFF7D4F8002504E00120FFF7CFF822
:101DF00000E005462E462846314606B070BD00BFBD
:101E0000F80000100000F03FA8980100F8B5FFF7B7
:101E100039FF04460D46524B93F890015E2800F0BE
:101E20008B8007D82A2812D02F281BD0262840F0D4
:101E3000938073E0C2283DD003D87C2840F08C808A
:101E40005EE0C32848D0C52840F086801CE0FFF73C
:101E5000FBFAFFF717FF02460B462046294616F00D
:101E6000A1FBD6E7FFF7F0FAFFF70CFF00220023F3
:101E700006460F4616F0FEFDC0B9204629463246FA
:101E80003B4616F0B9FCC4E7FFF7DEFAFFF7FAFEAF
:101E90000022002306460F4616F0ECFD30B920461E
:101EA000294632463B4609F06FFAB2E70C20FFF7AD
:101EB0006EF8B0E7FFF7C8FAFFF7E4FE06460F46F4
:101EC0002046294616F030FE39460446304616F0C4
:101ED00003FE14FA00F010E0FFF7B6FAFFF7D2FEA7
:101EE00006460F462046294616F01EFE3946044691
:101EF000304616F0F1FD34FA00F016F0DDFA88E70E
:101F0000FFF7A2FAFFF7BEFE16F0E6FD29460646E9
:101F1000204616F0E1FD46EA00001AE0FFF794FAC9
:101F2000FFF7B0FE16F0D8FD29460646204616F00B
:101F3000D3FD06EA00000CE0FFF786FAFFF7A2FEE9
:101F400016F0CAFD29460646204616F0C5FD86EA6B
:101F5000000016F0C1FA5CE720462946F8BD00BF34
:101F6000F800001038B5FFF751FF114B044693F805
:101F700090010D462B2802D02D2816D10AE0FFF73C
:101F800063FAFFF743FF02460B462046294616F048
:101F900057F9EAE7FFF758FAFFF738FF02460B4612
:101FA0002046294616F04AF9DFE7204638BD00BF33
:101FB000F800001008B5F220FFF746FAFFF726FEFA
:101FC000FFF72EF8094B9A6C002A05DC1520FEF766
:101FD000DEFF4FF6FF7008BD20B1013A9A644FF65C
:101FE000FE7008BD3F3233F8120008BDF800001043
:101FF00070B50A4CE4202568FFF73EFAFFF706FEAD
:10200000FFF70EF806462920FFF71EFAA36A03B968
:102010002660284616F060FA70BD00BFF800001078
:1020200010B5CE20FFF710FAFFF7F0FDFEF7F8FF2E
:1020300004462C20FFF708FAFFF7E8FDFEF7F0FF53
:10204000034B9B6A03B920604FF6FE7010BD00BFC2
:10205000F800001038B5CC20FFF70EFAFFF7D6FDD8
:10206000044629200D46FFF7EFF9074B9B6A3BB961
:102070002046294616F058FD006816F01DFA38BDB6
:102080000020002138BD00BFF800001070B5114CD1
:10209000B920A56BFFF7F0F9FFF7B8FDFEF7C0FF19
:1020A00006462920FFF7D0F9721E42F20F739A42BA
:1020B00003D91020FEF76BFF00E0A663E06B20B1B0
:1020C00004F0FCFE034B0022DA63284616F004FA03
:1020D00070BD00BFF80000102DE9F041B520FFF7FA
:1020E000CBF9FFF793FDFEF79BFF80462C20FFF70F
:1020F000ABF9FFF78BFD04462C200D46FFF7A4F942
:10210000FFF784FD064629200F46FFF79DF9B8F139
:10211000000F01D134463D4620462946BDE8F081F6
:1021200038B5B320FFF790F9FFF770FDFEF778FFA1
:102130000546EC20FFF788F9FFF7F2F904469B20EB
:10214000FFF7A1F910B1FFF7EBF901E04FF6FE70D0
:10215000002D18BF204638BD10B5AE20FFF78CF912
:10216000FFF754FDFEF75CFF04462920FFF76CF9EA
:10217000032C0FD80A4B9A6A62B90A3403EBC402E3
:102180001279022A06D153F8343033B1986816F028
:1021900093F910BD0020034910BD0020014910BD76
:1021A000F80000100000F0BF10B5A520FFF764F99B
:1021B000FFF72CFDFEF734FF04462920FFF744F912
:1021C000032C12D80C4B9A6A7AB90A3403EBC40276
:1021D0001279022A09D153F8343033B19A68DB6896
:1021E0009A4205D30020054910BD0020044910BDC6
:1021F0000020002110BD00BFF80000100000F03FDB
:102200000000F0BFF8B5A220FFF736F9FFF7FEFC9B
:10221000FEF706FF06462920FFF716F9032E13D80E
:102220000C4CA56A85B90A3604EBC6073B79012B2D
:102230000AD154F8360050B104F040FE44F836504C
:102240003D7100200021F8BD00200349F8BD0020A9
:102250000149F8BDF80000100000F0BF13B594204C
:10226000FFF70AF9FFF7D2FCFEF7DAFE0446292051
:10227000FFF7EAF8012301A8ADF804308DF8064015
:10228000FEF7CCFF1CBD38B59120FFF7F5F8FFF73E
:10229000BDFC16F049FC04462C20FFF7D5F8FFF7EB
:1022A000B5FCFEF7BDFE05462920FFF7CDF86B1EF5
:1022B000032B0BD82846FEF7AEFFD0B10023C2187F
:1022C00001339470240AAB42F9D138BD2B1D032B86
:1022D0000BD86D422846FEF79EFF50B1013D4319D1
:1022E0009C70240A002DF9D138BD1020FEF74FFE56
:1022F000002038BD38B58420FFF7BEF8FFF786FC14
:102300000D4604462920FFF79FF825F0004320469C
:10231000194638BD70B5FD20FFF7AEF8FFF776FC23
:10232000FEF77EFE04462C20FFF78EF8FFF76EFCCA
:10233000FEF776FE05462920FFF786F8A0B229466B
:102340000EF07AFD034B002808BF1846BDE8704028
:10235000FFF778B9BC95010010B59D20FFF78CF808
:10236000FFF754FCFEF75CFE04462920FFF76CF8EB
:10237000002CBCBF064BDC6A192C97BF054B0648E6
:1023800003EB8404D4F8B007BDE81040FFF75AB956
:10239000F8000010A8980100C4A0010070B5FC204E
:1023A000FFF76AF8FFF732FCFEF73AFE05462C20ED
:1023B000FFF74AF8FFF72AFCFEF732FE064629200F
:1023C000FFF742F80C4B9C6A9CB9002E12DD304698
:1023D000FEF721FF044668B13146AAB202300EF082
:1023E00095FD01462046FEF705FF002818BF04466C
:1023F00000E00024204670BDF800001070B5EB200E
:10240000FFF73AF8FFF702FC044629200D46FFF7D4
:102410001BF820462946BDE8704008F057BE30B58D
:10242000E9208BB0FFF728F8FFF7F0FB0D460446D4
:102430002920FFF709F822462B46684602F086FF5E
:10244000FFF700F90BB030BD70B5E720FFF714F8C7
:10245000FFF7DCFB04460D462920FEF7F5FF20467A
:1024600029460022002316F023FB28B120462946E6
:10247000BDE8704009F00EBA1820FEF788FD002074
:10248000002170BD70B5E620FEF7F6FFFFF7BEFB3A
:10249000044629200D46FEF7D7FF20462946BDE811
:1024A000704008F0C3BD2DE9F341E320FEF7E4FFDF
:1024B000FFF7ACFBFEF7B4FD07462C20FEF7C4FF88
:1024C000FFF7A4FBFEF7ACFD06462C20FEF7BCFF91
:1024D000FFF79CFBFEF7A4FD05462C20FEF7B4FF9A
:1024E000FFF794FBFEF79CFD04462C20FEF7ACFFA3
:1024F000FFF78CFBFEF794FD80462920FEF7A4FF32
:10250000084B9B6A43B9384631462A46E3B2CDF8B8
:10251000008011F048FE00E0002015F0DDFFBDE86E
:10252000FC8100BFF80000102DE9F341E120FEF727
:10253000A3FFFFF76BFBFEF773FD80462C20FEF731
:1025400083FFFFF763FBFEF76BFD06462C20FEF7CB
:102550007BFFFFF75BFBFEF763FD07462C20FEF7D2
:1025600073FFFFF753FBFEF75BFD05462920FEF7DF
:102570006BFF164B9C6A002C23D1002E0CDA4046D0
:1025800071423A462B46009412F062F9204602B09E
:10259000BDE8F041FEF73FBE3046FEF73CFE044684
:1025A00080B1831C009331463A462B46404612F0D8
:1025B0004FF901462046FEF71DFE002818BF0446CD
:1025C00000E00024204602B0BDE8F081F8000010D1
:1025D000F7B5E020FEF738FFFFF718FBFEF720FD08
:1025E00007462C20FEF730FFFFF710FBFEF718FD23
:1025F00006462C20FEF728FFFFF708FBFEF710FD2C
:1026000005462C20FEF720FFFFF700FBFEF708FD34
:1026100004462C20FEF718FFFFF7F8FAFEF700FD3E
:10262000314600902A463846234612F00FF94FF6FD
:10263000FE70FEBD2DE9F041DC20FEF71DFFFFF727
:10264000E5FAFEF7EDFC80462C20FEF7FDFEFFF7D5
:10265000DDFAFEF7E5FC07462C20FEF7F5FEFFF756
:10266000D5FAFEF7DDFC06462920FEF7EDFE144BF9
:102670009D6A002D1DD1002F1DDD3846FEF7CBFDD4
:102680000446C8B1A11C40463A46334610F0AEFE9F
:10269000011E07DA204604F011FC2846BDE8F0418F
:1026A000FEF7B9BD2046FEF7A5FD002818BF044679
:1026B00002E0002400E02C462046BDE8F08100BF87
:1026C000F800001010B5DB20FEF7D6FEFFF79EFAEB
:1026D000FEF7A6FC04462920FEF7B6FE204610F0C1
:1026E0002FFF15F0F9FE10BD10B5DA20FEF7C4FE7D
:1026F000FFF78CFAFEF794FC04462920FEF7A4FEAF
:10270000204610F017FF15F0E7FE10BD10B5D820D9
:10271000FEF7B2FEFFF77AFAFEF782FC04462920A4
:10272000FEF792FE204610F0EBFE15F0D5FE10BD30
:1027300038B5D720FEF7A0FEFFF768FAFEF770FC69
:1027400004462C20FEF780FEFFF760FAFEF768FCD7
:1027500005462920FEF778FE2946204610F0FCFEAB
:1027600015F0BAFE38BD70B5BC20FEF785FEFFF748
:102770004DFA044629200D46FEF766FE20462946FE
:10278000BDE8704008F074BB70B5D620FEF774FE4B
:10279000FFF73CFA04460D462920FEF755FE294670
:1027A0002046FEF73DFC15F097FE00221D4B054626
:1027B0000C4616F087F980B103F091F815F08CFE05
:1027C00000224FF07C5315F0EDFE2A46234615F00B
:1027D000E9FEBDE8704008F04BBB284621460022C8
:1027E000104B16F047F948B103F079F815F074FE74
:1027F00000224FF07C5315F0D5FE70BD28462146CF
:102800000022002316F040F948B104F100412846A7
:1028100016F08AF903F086F80020002170BD002030
:10282000002170BD0000F03F2DE9F041CF20FEF700
:1028300023FEFFF7EBF904462C200D46FEF704FEBD
:10284000FFF7E4F9064629200F46FEF7FDFD204676
:10285000294632463B46BDE8F04108F071BE2DE9FD
:10286000F04302230360494D023B436095F89061B9
:1028700085B0F31E0446032B00F28180DFE803F0ED
:1028800020024141E869694603AAFEF716FC0420CC
:10289000FEF7DAFD68460021FEF77CFC054668B9C4
:1028A0006846FEF72CFD054628B3694602F045FD53
:1028B00000230022C5E9042304232B7204231DE016
:1028C000E869694603AAFEF7F8FB0320FEF7BCFDA2
:1028D00068460021FEF75EFC054670B96846FEF7C3
:1028E0000EFD054638B1694602F027FD00232B6135
:1028F00003332B7201E0022042E0032323601035F2
:102900003BE0694603AAE869FEF7D7FB95F890011A
:10291000FEF79AFD68460021FEF70BFC052E14BF5A
:1029200003260426074628B30DF106094FF00008D8
:102930000EE0FFF76BF9FEF773FB29F8020F97F92A
:10294000093008F10108984502D02C20FEF77CFDE3
:1029500097F909309845ECDBAB6A2BB9384602A9E8
:10296000FEF71EFB054600E000252920FEF76CFD62
:1029700015B907E0042003E02660656002E001204D
:10298000FEF705FB05B0BDE8F08300BFF8000010BE
:102990002DE9F04F324F87B0C620FEF755FD3B6C56
:1029A0003C46002B54D0F86903A905AAFEF785FB25
:1029B00001A8FFF754FF019B042B01D0082048E039
:1029C0003E6C03A8751E4FEA451808F1900179186E
:1029D00002F044FF00283BD1DDF808A04744D7E9C6
:1029E0002A23DAE9000115F02BFC80468946CAE962
:1029F0000089D7E92AAB002250465946002316F039
:102A000043F848B104367601A61940464946D6E94E
:102A1000002316F039F880B95046594600220023A9
:102A200016F050F878B16B1D5B01E318404649463B
:102A3000D3E9002316F046F828B1236C4FF6FE7058
:102A4000013B236409E06D016419B4F8980004E0C7
:102A50000B20FEF79CFA4FF6FF7007B0BDE8F08F31
:102A6000F80000102DE9F04F534E89B0A820FEF772
:102A7000EBFCF06903A907AAFEF71FFB05A8FFF707
:102A8000EEFE059B042B01D008201FE03D20FEF741
:102A9000DBFCFFF7BBF88046EF208946FEF7D4FC4D
:102AA000FFF7B4F88246E8208B46FEF7ECFC20B135
:102AB000FFF7ACF804460D4601E0404D0024376CAA
:102AC000069B072FC3E9008905DD0920FEF75FFAA1
:102AD0004FF6FF766BE0204629460022002315F0D2
:102AE000D3FF30B14046494652465B4615F0CCFF15
:102AF00078B9204629460022002315F0E3FF00287C
:102B00003BD04046494652465B4615F0DBFF002865
:102B100033D0F569FEF788FA736A30861A18F261C5
:102B20001B5C254C3BB30023A362FEF71BFC84F81F
:102B300090010720FEF7A7FCC620FEF7A4FC0028A2
:102B4000E8D094F89031043BDBB2012BE2D8E06985
:102B500001A907AAFEF7B1FA03A801A902F07EFEB7
:102B60000028D7D1FEF760FAE5610646FEF7FAFBCA
:102B700084F890011BE00A20A8E74FEA471808F103
:102B80009000301803A902F0D8FBFEF74DFA053784
:102B900006EB08037F01F719A3F89800C3E92A455B
:102BA000336CC7E900AB013333644FF6FE76304631
:102BB00009B0BDE8F08F00BFF80000100000F03F42
:102BC00070B5C120FEF758FCFFF720F804460D460B
:102BD0002920FEF739FC204629460022002315F063
:102BE00071FF28B120462946BDE8704008F028BC96
:102BF0001720FEF7CCF90020002170BD70B5194EEA
:102C000096F890412046FEF71FFCFEF7FFFFFEF707
:102C100007FA05462C20FEF717FCFEF7F7FFFEF734
:102C2000FFF9B36A0146CBB9CA2C10D002D8C02C28
:102C300014D104E0CB2C0ED0E52C0FD103E02946B3
:102C400002F0D4F80AE0284611F012FA06E028460D
:102C500011F08FFB02E0284611F042FC4FF6FE70A7
:102C600070BD00BFF8000010F8B5124F97F89061E2
:102C70003046FEF701FCFEF7C9FF044629200D4649
:102C8000FEF7E2FBBB6A93B9B72E06D12946204670
:102C900015F022FF11F05EFB05E02946204615F0F5
:102CA0001BFF11F045FC15F007FC04460D462046BD
:102CB0002946F8BDF800001010B5B22086B0FEF726
:102CC000DBFBFEF7A3FFFEF7ABF904462920FEF776
:102CD000BBFB214601A802F0B9F8FEF7B3FC06B031
:102CE00010BD70B5AD20FEF7C7FBFEF78FFFFEF7F6
:102CF00097F904462C20FEF7C6FB18B1FEF786FFB5
:102D0000FEF78EF906462920FEF79EFB032C18D805
:102D10000F4DAB6AABB904F10A0305EBC30212799C
:102D2000022A0ED155F8330070B10EB107F0EDF85C
:102D30000A3455F8340006F01CFE404215F0CCFB76
:102D400070BD0020034970BD0020024970BD00BF66
:102D5000F80000100000F0BF70B5AB20FEF78CFB50
:102D6000FEF754FFFEF75CF905462C20FEF76CFBDE
:102D7000FEF74CFFFEF754F904462C20FEF764FBE7
:102D8000FEF744FFFEF74CF906462920FEF75CFBF0
:102D9000032D1FD8002C1DDB114B9A6AD2B90A35BE
:102DA00003EBC5021279022A14D153F83500A0B101
:102DB000012E02D18368E41803E0022E03D1C36818
:102DC0001C1B24EAE474214606F002FF404215F081
:102DD00083FB70BD0020034970BD0020014970BD18
:102DE000F80000100000F0BF2DE9F341AA20FEF723
:102DF00043FBFEF70BFFFEF713F906462C20FEF708
:102E000023FBFEF703FFFEF70BF980462920FEF7B0
:102E10001BFB032E30D81B4FBD6A6DBB06F10A03A6
:102E200007EBC3021279022A28D157F8334034B392
:102E30004046FEF7F0F90446A0B920E006F10A0387
:102E400057F833000DF1070101226B4606F002FC32
:102E500050B9009B43B19DF80730621901350A2B28
:102E6000937001D04545E9D320462946FEF7C2F9C3
:102E7000002818BF044602E0002400E02C4620464B
:102E8000BDE8FC81F8000010F7B5A920FEF7F4FAC0
:102E9000FEF7BCFEFEF7C4F806462C20FEF7D4FA77
:102EA000FEF7B4FEFEF7BCF805462920FEF7CCFA83
:102EB000032E21D8124FBC6AF4B90A3607EBC603B9
:102EC0001B79022B19D157F83640B4B12846FEF7CA
:102ED000A2F9044688B1A11C57F83600228801AB3C
:102EE00006F0B8FB0199A94207D82046FEF782F9FF
:102EF000002818BF044600E000242046FEBD00BFA5
:102F0000F800001010B5A42086B0FEF7B5FAFEF761
:102F10007DFEFEF785F804462920FEF795FA032C7E
:102F200016D80E4B9A6A9AB90A3403EBC402127986
:102F3000012A0DD153F8340050B1694606F027FF3D
:102F400030B99DF809301BB16846FEF7A2FB10B9F5
:102F50000020FEF760F906B010BD00BFF8000010B9
:102F60002DE9F041A020FEF787FAFEF74FFEFEF7AD
:102F700057F805462920FEF767FA032D1BD8124C97
:102F8000A66AC6B90A3504EBC5073B79022B12D1F4
:102F900054F8350098B106F03EFD804654F83500EF
:102FA00003F08CFF3E71C8F1000044F8356015F065
:102FB00093FABDE8F08100200449BDE8F0810020CB
:102FC0000249BDE8F08100BFF80000100000F0BF2A
:102FD00070B59F20FEF750FAFEF718FE0446292030
:102FE0000D46FEF731FA20462946BDE8704008F04C
:102FF0004BB938B59E20FEF73FFAFEF707FE0446B0
:103000000D462920FEF720FA2046294600220023FB
:1030100015F030FD094C50B9B4F84C00FEF7CEFB6A
:1030200015F05AFA4FF0FF33A4F84C3038BDE06A7F
:1030300015F052FA0023E36238BD00BFF80000101B
:1030400070B59820FEF718FAFEF7E0FD0446292037
:103050000D46FEF7F9F920462946BDE8704007F015
:10306000B3BE38B5104D95F890412046FEF7ECF907
:10307000FEF7CCFDFDF7D4FFAB6A014683B9922C75
:1030800002D0F62C0CD106E010B101F03DFE07E0B5
:1030900001F036FE04E04FF47A70642211F07DF9FD
:1030A0004FF6FE7038BD00BFF800001070B59020DC
:1030B000FEF7E2F9FEF7AAFD044629200D46FEF7C9
:1030C000C3F920462946BDE8704007F0C1BC70B581
:1030D0008F20FEF7D1F9FEF799FD04460D46292011
:1030E000FEF7B2F92046294600220B4B15F0E0FC12
:1030F00060B1204629460022084B15F0CFFC28B1CC
:1031000020462946BDE8704008F068B81920FDF750
:103110003EFF0020002170BD0000F0BF0000F03F26
:10312000F8B51A4F97F890412046FEF78DF9FEF753
:103130006DFDFDF775FF06462C20FEF785F9FEF7BD
:1031400065FDFDF76DFF05462C20FEF77DF9FEF7C6
:103150005DFDFDF765FFBB6A0246A3B9D12C04D023
:10316000F02C07D08A2C0ED109E03046294611F008
:1031700049F908E03046294611F00FF903E03046DE
:10318000294611F04DFB4FF6FE70F8BDF800001017
:10319000F7B58820FEF758F9FEF738FDFDF740FF38
:1031A00007462C20FEF750F9FEF730FDFDF738FFFB
:1031B00006462C20FEF748F9FEF728FDFDF730FF04
:1031C00005462C20FEF740F9FEF720FDFDF728FF0D
:1031D00004462C20FEF738F9FEF718FDFDF720FF16
:1031E000314600902A463846234611F0C7FA4FF67A
:1031F000FE70FEBD38B58720FEF73EF9FEF706FDEE
:10320000FDF70EFF05462920FEF71EF90C4B9C6AC0
:1032100094B9002D11DD6800FDF7FDFF044660B193
:103220002946023011F0B2F941002046FDF7E2FFD5
:10323000002818BF044600E00024204638BD00BF27
:10324000F800001070B58520FEF716F9FEF7DEFCD9
:1032500004460D462920FEF7F7F8204629460022AD
:103260000B4B15F025FC60B1204629460022094B86
:1032700015F014FC28B120462946BDE8704007F03F
:1032800057BF1920FDF783FE0020002170BD00BF4D
:103290000000F0BF0000F03F73B5F520FEF7ECF83A
:1032A000FEF7CDFA06462920FEF7CEF876B1B41C1B
:1032B000204601A901F010FF0198001B15F00CF940
:1032C000044630460D4603F0F9FD01E000240025D8
:1032D000204629467CBD70B5F420FEF7CDF8FEF7F8
:1032E000AEFA06462920FEF7AFF84EB1B01C002119
:1032F00001F0F2FE044630460D4603F0DFFD01E02A
:10330000002400252046294670BD38B5D520FEF79B
:10331000B3F8FEF794FA04462C20FEF795F8FEF772
:1033200075FCFDF77DFE05462920FEF78DF85CB1A2
:1033300022882046511B21EAE171FDF7A4FF0546D2
:10334000204603F0BBFD00E02546284638BD70B599
:10335000C420FEF791F8FEF772FA04462C20FEF71F
:1033600073F8FEF753FCFDF75BFE06462C20FEF7D4
:103370008AF828B1FEF74AFCFDF752FE054601E047
:103380004FF0FF352920FEF75FF86CB1B5F1FF3F34
:1033900008BF258820462A46711EFDF774FF0546A2
:1033A000204603F08BFD00E02546284670BD70B531
:1033B000BE20FEF761F8FEF742FA06462920FEF726
:1033C00043F846B1308815F077F8044630460D468C
:1033D00003F074FD01E0002400252046294670BD5D
:1033E00038B5BD20FEF748F8FEF729FA04462C2030
:1033F000FEF72AF8FEF70AFCFDF712FE0546292023
:10340000FEF722F84CB12A4620460021FDF73BFF8B
:103410000546204603F052FD00E02546284638BD0B
:10342000F8B5BB20FEF728F8FEF709FA07462C206E
:10343000FEF70AF8FEF703FA06462C20FEF704F81A
:10344000FEF7E4FBFDF7ECFD04462920FDF7FCFF49
:103450000FB3002E28D032883988601E20EAE07031
:10346000891A0CE03D18ED18F418AD78A478A5423F
:1034700002D101339342F5DB934206D001308842FA
:1034800001DC0023F6E74FF0FF30013015F024F89F
:1034900004460D460AE00024002516B1304603F02C
:1034A0000DFD20462946F8BD00240025384603F0CE
:1034B00005FDF2E770B5B420FDF7DEFFFEF7A6FBD1
:1034C000FDF7AEFD06462C20FDF7BEFFFEF7B7F96F
:1034D00005462C20FDF7B8FFFEF7B1F90446292078
:1034E000FDF7B2FF2DB104B126B9284603F0E6FC82
:1034F00004E01CB1204603F0E1FC2C46204670BDE0
:1035000038B59320FDF7B8FFFEF799F904462C2053
:10351000FDF79AFFFEF77AFBFDF782FD05462920AD
:10352000FDF792FF14B3002D23880CDD9D42B8BF38
:103530002B46002504E0013BE21892782D02AD18DD
:10354000002BF8D10EE06D429D42B4BF2A461A46C8
:1035500000231D4604E0E11889782D026D1801331F
:103560009342F8DB204603F0A9FC00E025462846FC
:1035700014F0A2FF38BD70B58E20FDF77DFFFEF779
:103580005EF906462C20FDF77EFF28B1FEF73EFBD4
:1035900015F0CAFA441E00E004462920FDF754FF46
:1035A0008EB1002C09DB33889C4206DA3419A078EE
:1035B00014F082FF04460D4601E0054D002430461C
:1035C00003F07CFC01E0024D00242046294670BD3A
:1035D0000000F0BFF8B5FB20FDF74EFFFEF716FB2D
:1035E000FDF71EFD05462C20FDF72EFFFEF70EFB16
:1035F000FDF716FD06462C20FDF726FFFEF71FF906
:1036000004462920FDF720FF94B1ADB2A01C21880B
:103610002A460DF04DFC002E074605DA0020014633
:103620002A460DF045FC0746204603F047FC01E022
:103630004FF0FF37384614F04FFFF8BD2DE9F74340
:10364000FA20FDF719FFFEF7FAF880462C20FDF767
:10365000FBFEFEF7F4F805462C20FDF7F5FEFEF71D
:10366000EEF806462C20FDF7EFFEFEF7E8F80746D9
:103670002C20FDF7E9FEFEF7E2F804462920FDF7CD
:10368000E3FEB8F1000F14D0002D2AD0002E28D070
:10369000002F26D0002C24D0A31C0093238808F1EF
:1036A00002000193A91CB21CBB1C0FF031FD814626
:1036B00019E04FF0FF3915B1284603F0FFFB16B1B2
:1036C000304603F0FBFB17B1384603F0F7FB14B1AB
:1036D000204603F0F3FB484614F0FEFE03B0BDE8BD
:1036E000F0834FF0FF39404603F0E8FBE3E72DE9B4
:1036F000F041F920FDF7C0FEFEF7A1F805462C20A9
:10370000FDF7A2FEFEF79BF806462920FDF79CFE7A
:1037100095B18EB105F10208B71C3946002240462A
:103720000DF01AFCFDF777FD044650B140463946CE
:10373000A21C0DF011FC04E00220FDF728FC25B1CD
:103740000024284603F0BAFB00E02C4616B13046B0
:1037500003F0B4FB2046BDE8F08170B5F820FDF71A
:103760008BFEFEF76CF805462920FDF76DFE85B14E
:10377000AE1C002130460DF048FCFDF74CFD044620
:1037800018B13046A11C0DF040FC284603F096FB12
:1037900003E00220FDF7FBFB2C46204670BD70B510
:1037A000F320FDF769FEFEF74AF804462C20FDF7EA
:1037B0006AFE18B1FEF72AFAFDF732FC0646292008
:1037C000FDF742FE04B32088FDF725FD0546B8B19C
:1037D0009EB1002606E0A319987801F070FDAB19A0
:1037E0009870013623889E42F5DB09E0A31998788A
:1037F00001F05FFDAB199870013623889E42F5DB1E
:10380000204603F05BFB00E02546284670BD38B536
:10381000F120FDF731FEFEF712F804462C20FDF7EB
:1038200032FE18B1FEF7F2F9FDF7FAFB0546292042
:10383000FDF70AFE24B37DB1002505E063199878F1
:1038400001F0FBFB18B1013523889D42F6DB22888D
:1038500020462946521B0CE0258805E0631958785C
:1038600001F0EBFB10B1013D002DF7D12046002106
:103870002A46FDF708FD0546204603F01FFB00E041
:103880002546284638BD38B5EE20FDF7F5FDFDF795
:10389000D6FF04462920FDF7D7FD3CB1A01C10F04F
:1038A0007BF90546204603F009FB00E02546284643
:1038B00014F012FE38BD2DE9F041EA20FDF7DCFDE1
:1038C000FEF7A4F9FDF7ACFB07462C20FDF7BCFD85
:1038D000FDF7B5FF04462920FDF7B6FD002C29D0E1
:1038E000002F01DD208838B9204603F0E7FA0020D8
:1038F000BDE8F041FDF78FBC7843FDF78CFC054631
:10390000A0B12388012B05D10230A1783A4601F0FD
:10391000EAFC0BE00026214631F8022BA81C02FB32
:103920000600013601F0E7FCBE42F4DB204603F05E
:10393000C5FA00E025462846BDE8F08170B5E220D2
:10394000FDF79AFDFEF762F9FDF76AFB04462C20AD
:10395000FDF77AFDFDF773FF06462920FDF774FD9C
:103960007EB10A4B9B6A63B9B11C3288204610F0C5
:1039700096FF14F0B1FD044630460D4603F09EFA62
:1039800001E0002400252046294670BDF800001003
:103990002DE9F04FDF2089B0FDF76EFDFEF736F917
:1039A000FDF73EFB82462C20FDF74EFDFEF72EF97B
:1039B000FDF736FB83462C20FDF746FDFEF726F982
:1039C000FDF72EFB06902C20FDF73EFDFEF71EF9BD
:1039D000FDF726FB07902C20FDF736FDFEF716F9C4
:1039E000FDF71EFB81462C20FDF72EFDFEF70EF99C
:1039F000FDF716FB07462C20FDF726FDFDF71FFF00
:103A000005462920FDF720FD002D2FD01A4B9E6A78
:103A100026B1284603F052FA002428E03846FDF784
:103A2000FAFB0446F0B100F1020831463A4640463E
:103A300001F059FC2B46CDF8009033F8022B50468C
:103A4000019202935946069A079B0397CDF810807E
:103A500010F033FC30B1204603F030FA3046FDF769
:103A6000DAFB0446284603F029FA00E02C462046FB
:103A700009B0BDE8F08F00BFF800001070B5DE207F
:103A8000FDF7FAFCFEF7C2F8FDF7CAFA05462C204E
:103A9000FDF7DAFCFEF7BAF8FDF7C2FA04462C206F
:103AA000FDF7D2FCFDF7CBFE06462920FDF7CCFC46
:103AB00086B10B4B9B6A6BB92346B11C32882846F2
:103AC00010F02AFB14F008FD044630460D4603F0C2
:103AD000F5F901E0002400252046294670BD00BF0D
:103AE000F800001038B5DD20FDF7C6FCFEF78EF8B3
:103AF000FDF796FA05462C20FDF7A6FCFDF79FFE84
:103B000004462920FDF7A0FC4CB12846A11C2288C0
:103B10000FF0C4FC0546204603F0D0F901E04FF059
:103B2000FF35284614F0D8FC38BD70B5D920FDF714
:103B3000A3FCFDF784FE04462C20FDF785FCFEF770
:103B400065F8FDF76DFA06462C20FDF77DFCFEF7C3
:103B50005DF8FDF765FA05462920FDF775FC4CB1C7
:103B60002A46A01CB1B20FF029FD0546204603F0FD
:103B7000A5F901E04FF0FF35284614F0ADFC70BD0B
:103B800030B5D0208BB0FDF77EFC184B93F8900138
:103B9000FDF75CFA88B1FDF752FE0446B0B100258E
:103BA00004E06319987801F079F8013523889D4283
:103BB000F7DB204603F082F908E0FEF727F802461B
:103BC0000B46684601F0C2FB01F090F82C20FDF78F
:103BD0005AFC0028D9D13B30FDF755FC10B90A300A
:103BE00001F05CF84FF6FE700BB030BDF80000102D
:103BF00037B5BF20FDF747FC6846FEF730FE3D2095
:103C0000FDF722FC009B032B07D0042B14D1019C51
:103C1000FDF7FCFFC4E900010EE0019B1C68FDF705
:103C20000EFE019D034610B9FDF7F5FA03462B6021
:103C300014B1204603F042F94FF6FE703EBD2DE967
:103C4000FF410646FDF78EFB844D85F89001072065
:103C5000FDF719FC95F890012C46BA280FD003D82F
:103C60003F2840F0E18005E0C4287DD0D22840F014
:103C7000DB8074E0FDF7E8FBFFF782FFE8E0002E51
:103C800069D1EE6B46B9A86B013002F05BF9E863CD
:103C900008B9023060E06E6301F00EF80D280546A9
:103CA00001D00A280FD1E26B636B0026D6540A209C
:103CB00000F0F4FFBA20FDF7C7FB02A8FEF7CFFD26
:103CC000E06B30BB23E0082801D07F280BD1636B69
:103CD000624D002B40F3E580614801F007F86B6B03
:103CE000013B6B63DDE0626BA36B5C4E9A4280F23A
:103CF000D88001F096F9002800F0D380736BF26B46
:103D00002846D5540133736300F0C8FFC9E0102082
:103D100019E0029B032B08D0042B16D13146039DDA
:103D200001F0DAF9C5E900010FE0039B186808B15A
:103D300003F0C4F8E06B039DFDF784FC2860039B4F
:103D40001B6813B90220FDF722F9E06B03F0B6F807
:103D50000023E36392E00120FDF719F901E0FDF78C
:103D600073FB4FF6FE7598E0FDF786FB6846FEF79D
:103D700076FD2C20FDF768FBFDF748FFFDF750F9B5
:103D800080462C20FDF77FFB28B1FDF73FFFFDF7B4
:103D900047F9074601E04FF0FF372920FDF754FBB4
:103DA0003D20FDF751FBFDF74AFD064608B902200C
:103DB00051E0009B032B30D1019D286840B9FDF7ED
:103DC0002AFA2860019B1B6813B90220FDF7DFF86F
:103DD000019B1D6825B3002F08F1FF38338801DBF4
:103DE0009F4200DD1F462B8828EAE8789845A8BF47
:103DF000984607EB0801994204DD2846FDF7FAF9D9
:103E0000054640B1A81C4044B11C3A4601F073FA83
:103E1000019B1D6004E0022000E00820FDF7B7F8D8
:103E2000304603F04BF829E000F17D03DBB27A2B3A
:103E30001AD80C4A833802EB001393F90830012B8F
:103E400002D0022B06D12EB902EB0010C3689847AE
:103E5000054615E00120FDF79AF80FE0F800001084
:103E6000B9950100A8980100C31EDBB2012B03D94C
:103E7000062801D0052801D1FFF7BAFE4FF6FE75DE
:103E800094F890314BB1084BD86901F005FA0378EA
:103E90000A2B02D00120FDF77AF8284604B0BDE8CD
:103EA000F081258EF9E700BFF800001037B5AF208C
:103EB000FDF7E2FAFDF7AAFEFDF7B2F805462C2061
:103EC000FDF7C2FAFDF7BBFC04462920FDF7BCFA5A
:103ED0002CB90220FDF75BF84FF0FF3514E0032DFD
:103EE00017D80F4B9A6AA2B90A3503EBC5021279AB
:103EF000022A0ED153F8350058B1A11C228801AB1B
:103F000005F064FC454206E0284614F0E5FA03B0EB
:103F100030BD4FF0FF35204602F0D0FFF4E700BF80
:103F2000F800001030B5AC2087B0FDF7A5FAFDF71A
:103F300086FC04462920FDF787FA84B1A01C694657
:103F400005F04FFF0546204602F0B8FF1DB9684650
:103F5000FDF79FFB07E00020FDF75DF903E002207D
:103F6000FDF715F8204607B030BD2DE9F84FA72022
:103F7000FDF782FAFDF763FC05462C20FDF764FA95
:103F8000FDF75DFC06462920FDF75EFA05B12EB966
:103F90000220FCF7FCFF002D61D05AE0364A936AFC
:103FA0009246002B55D1B71C9B461CE001F081F9CD
:103FB0004F2816D004DC412810D0432813D10AE042
:103FC000522802D057280ED102E04BF0010B0AE034
:103FD0004BF0020B07E04BF0040B04E04BF0080B36
:103FE00001E04BF0100B17F8010B0028DED1224B3B
:103FF0000446D3F85080B8F1000F12D14FF4097085
:1040000001F0A0FF28B304F10A0702234AF83700A1
:10401000042C0AEBC70ADFF860908AF8043005D157
:1040200017E001340833042CE3D112E05FFA8BF27D
:10403000A91C05F06FFAC0F1000BBBF1000F19D0FD
:1040400059F8370002F03AFF49F837808AF80480BF
:1040500001E04FF0FF3B284602F030FF01E04FF057
:10406000FF3B16B1304602F029FF584614F034FAEF
:10407000BDE8F88FA346EEE7F800001038B5A6209B
:10408000FDF7FAF9FDF7DBFB04462920FDF7DCF923
:104090003CB1A01C05F0E7FF4542204602F00EFFB0
:1040A00004E00220FCF773FF4FF0FF35284614F0C0
:1040B00013FA38BD2DE9F047A320FDF7DDF9FDF730
:1040C000BEFB06462920FDF7BFF92EB90220FCF7FA
:1040D0005EFF4FF0FF3A2DE01D4B9C6A984674BB83
:1040E0001F6D8FB91C2001F02DFF40B304F10A05AC
:1040F000012348F83500042C08EBC508DFF8509080
:1041000088F8043005D11AE001340833042CE7D1D3
:1041100015E0B11C05F00AFEC0F1000ABAF1000F6B
:1041200010D059F8350002F0C9FE49F8357088F80A
:10413000047008E0504614F0CFF9BDE8F0874FF066
:10414000FF3A00E0A246304602F0B8FEF2E700BFB8
:10415000F800001038B5A120FDF78EF9FDF76FFBD0
:1041600004462920FDF770F93CB1A01C05F019FFA9
:104170004542204602F0A2FE04E00220FCF707FFC1
:104180004FF0FF35284614F0A7F938BD2DE9F04F60
:10419000A04D99208FB0FDF757F995F890312C4636
:1041A000053B012B00F20E8108A90DAAE869FCF776
:1041B00084FF95F89001FDF747F9FDF727FDCDE95C
:1041C00002012C20FDF75FF958B1FDF71FFDCDE985
:1041D00004012C20FDF757F928B1FDF717FD062043
:1041E00045E1012500E002252920FDF72DF90DF11B
:1041F0002606E846B1460027F8E902AB0022504601
:104200005946002314F040FCB0B9504659460022EC
:10421000814B14F057FC78B95946504614F05CFCB9
:10422000019014F059F902460B465046594614F0D5
:1042300021FCDDF804C008B9052018E10137AF42C0
:1042400029F802CFD8DB08A80021FCF772FF074647
:10425000002840D108A80CA96E4FD4F81080FCF7B4
:1042600068FF002840F0A9803869FCF7D5FE08F106
:10427000010881464046FCF7CFFE814503460AD03F
:104280001421F868594303F06CF818B90230FCF7B0
:104290007EFE92E0F8600C9AE768142303FB027735
:1042A0002169F8188A1A5A43394601F024F808A9F6
:1042B000384601F042F800233B617B7208A82421B4
:1042C00001F0A3FA00280CBF042003203872C4F8C0
:1042D0001080002F71D097F9093023B13846FCF7D0
:1042E00047FE804600E098464FF00109002336F96A
:1042F000022F0133AB4202FB09F9F8DB3B7A4E4651
:10430000032B25D0042B15D138694FEAC90103F0DE
:1043100028F8002851D038614FEAC80108E0386910
:10432000002240180023C0E9002308F101080831E9
:10433000C845F4DBBDF828307D727B81BDF82A309A
:104340003D20BB81FDF79FF8002800F092803BE004
:104350003B6993B14FEA890A0DE0D7F810B05BF8DA
:104360000A0020B102F0AAFD00234BF80A3009F13F
:1043700001090AF1040AC145EFDB3869B10002F016
:10438000F0FF08B9044616E038614FEA880305E0FB
:104390003A690021D15008F101080433B045F7DB38
:1043A000C8E73D6955F8240020B102F087FD0023DD
:1043B00045F8243001344445F3DB0220FCF7E7FDE7
:1043C000022054E0012052E03846FCF7D1FD3B7A50
:1043D0000646032B22D0042B44D13D69FDF716FC81
:1043E000C5E9000101250DE0FDF72EF83B6903EB5F
:1043F000C508FDF70BFC074BC8E900019B6A002BC1
:1044000030D1013594F890012C282BD1B542EBDB4B
:1044100028E000BFF80000100040DF403B6918684A
:1044200008B102F04BFD3D69FDF709FA286001254E
:1044300012E0FDF709F83B694FEA850853F82500BB
:1044400008B102F03BFDD7F81090FDF7F8F9A36A28
:1044500049F8080033B9013594F890012C2801D1AE
:10446000B542E6DB94F890312C2B02D10720FCF703
:104470008EFD4FF6FE700FB0BDE8F08F37B5972078
:10448000FCF7FAFFFDF7DBF904462920FCF7DCFF17
:104490008CB1A01C01A9FCF7BDF80546204602F02E
:1044A0000DFD25B128460199FCF7DEFE04E0284603
:1044B000FCF7B1FE00E020463EBD70B58B20FCF756
:1044C000DBFFFDF7BCF906462920FCF7BDFF66B10E
:1044D0003188B01C490810F081F813F0FDFF044644
:1044E00030460D4602F0EAFC01E00024002520469B
:1044F000294670BD004870472C0B001038B52B4C76
:104500000020626A238EA062D3182362E361FFF762
:1045100096FBA26A03460AB3B4F84E30208E4FF6DB
:10452000FF718B42A4F84C00E26201D0022A10D144
:10453000FDF744F9A36A0546192B97BF1C4A1D488D
:1045400002EB8303D3F8B00700F0D0FB1A482946EA
:104550001CE04FF0FF32A4F84E2003E04FF6FF724C
:1045600090421FD04FF6FE72934206D1FCF75CFDDD
:10457000636A20861B5C6BB916E04FF6FD729342AE
:1045800007D1208EFDF71AF901460C4800F004FD12
:1045900008E02386208E4FF6FF73C21A504240EB8C
:1045A000020038BD012038BD012038BDF8000010E0
:1045B000A8980100C9A00100D7A00100E0A0010057
:1045C0002DE9F041574D002386B068626B61AB6105
:1045D00049E00A2C08BF013000F05EFE0446007876
:1045E00000F013FD002838D0204603A905AAFCF7E7
:1045F00064FD059B072B30DC06AAD31813F80D3C8D
:104600003A2B2AD1A869474F461CFCF705FD804686
:104610003046FCF701FD8045034606D00A21786943
:10462000594302F09EFE38B178616B69AE610A228F
:10463000013E02FB063646B93B4800F057FB68696D
:1046400000286AD002F03AFC67E0304603A900F087
:1046500074FE344B5B6AE31A3381204614F8013B45
:104660000BB10A2BF9D10478002CB2D127462FE0E8
:104670000137059725E0D8F814100A26081906FB1B
:10468000031101F0EBF8002818DDD8F814103246B9
:104690000919684600F046FED8F814300599181933
:1046A00006FB0131324600F03DFED8F81430059883
:1046B000694606FB0030324600F034FE059B0133AC
:1046C0000593059BAA69DFF85C809342D3DB0A342B
:1046D000AA69144B9742CBDB502200209A634FF01B
:1046E000FF32986058601860D8601861D8635864C9
:1046F00098641864D862A3F84C20A3F84E2018865A
:10470000186583F85400986583F85C00186683F890
:104710006400986683F86C0001E04FF0FF3006B04B
:10472000BDE8F081F8000010F6A00100014B186808
:10473000704700BFF80000102DE9F047334C04F13A
:1047400020062546206D60B194F85430022B01D12B
:1047500005F061F9206D02F0B1FB0023236584F8B8
:1047600054300834B442EDD100240EF0BBFE26468E
:104770000AE05B681B191A7A032A03D1186908B189
:1047800002F09CFB01361834AA68204B9642F0DBFD
:10479000586808B102F092FB0026B04621E0DC68C0
:1047A000A419237A032B15D1D4F81090B9F1000F76
:1047B00014D02046FCF7DCFB0027824606E0236984
:1047C00053F8270008B102F079FB01375745F6DBB3
:1047D000484601E0206908B102F070FB08F10108C9
:1047E00014362A69094B9045D9DBD86B08B102F021
:1047F00065FBE86808B102F061FB686918B1BDE8C3
:10480000F04702F05BBBBDE8F08700BFF800001086
:1048100008B5FFF7D5FEB0F1FF3F0BD0FFF76EFEF6
:104820000028FBD0FFF788FF034B986A003818BFB9
:10483000012008BD012008BDF80000100B78FF2BF7
:104840000ABF034B0160036000234360704700BF51
:1048500092020010426810B55AB9026813780BB181
:1048600001320260A3F183027A2A02D80022436057
:104870008260416883397A290FD88268084C09011F
:104880008B18611891F9071001328A42E35C82604B
:1048900001D0CA4201D100224260184610BD00BFBB
:1048A000A898010000230360436070472DE9F74F8B
:1048B0000446019115469B464EE02B6820789BB13B
:1048C0000C99D84714F8013B222B08D120782228D4
:1048D00003D10C990134D8473EE0002302E00A3BA3
:1048E00018BF01232B6037E02228804602D1012621
:1048F0002E6029E06B6833BB99464FF07A0A09EBCA
:104900000A0719497F1001EB071191F9076020464A
:1049100086EAE672A2EBE67200F0B6FF002802DA41
:1049200007F1FF3A0DE006D1002E07DA7642A05DCE
:1049300000F059FB10B107F1010902E007F183080B
:1049400002E0D145DBDD012640460C99D8474046C0
:1049500000F049FBA4196860019A13689C42ACD32B
:104960001460BDE8FE8F00BFA89801002DE9F04F4C
:104970009A208DB0FCF768FDFCF761FF064608B988
:10498000023078E03F4CA56A002D2FD12846FCF775
:1049900042FC049020B9304602F090FA02206AE00E
:1049A00007A806950595FFF77DFF33880CA9F31836
:1049B000023341F8043D07AA334B04AFB01C009703
:1049C000FFF774FF304602F079FA28463946FCF7C3
:1049D0007CFC069D0DB1022005E004980599FCF7CA
:1049E00009FC30B90230FCF7D2FA049802F066FAFA
:1049F00043E0238E049002304FF0FF32D4F81C8045
:104A0000D4F82090676A2062E06160620120B4F807
:104A10004CB0B4F84EA0A4F84C20A4F84E20039358
:104A2000A5622586FFF70BF9049802F047FAA66AFB
:104A3000039B022E18BFA5622386A4F84CB0A4F8ED
:104A40004EA0C4F82090C4F81C806762FCF78AFC72
:104A500084F890012C20FCF7F7FC09A8FDF7FFFE75
:104A6000099B042B06D1304613F036FD0A9BC3E99F
:104A7000000102E00820FCF78AFA4FF6FE700DB044
:104A8000BDE8F08FF8000010CB1200002DE9F043D4
:104A90008BB0129C98460023139D0F461370164648
:104AA0002370032800F2C980DFE800F00238578B3A
:104AB000032900F2C280DFE801F0020A1A2310463F
:104AC00060494246FCF7E0FA5F4B188E3EE0104624
:104AD0005E494246FCF7D8FA5B4BDB6A5A1E182A3D
:104AE0001AD85B4A02EB8303D3F8B01764E0104690
:104AF00058494246FCF7C8FA534BB3F84C0007E05C
:104B0000104655494246FCF7BFFA4F4BB3F84E00EA
:104B10004FF6FF73984219D150494DE0DFF82891C4
:104B2000D9F84430994280F2888010464C49424678
:104B3000FCF7AAFA791C684600F01EF938370146DE
:104B400042463046FCF7A0FA39F81700FCF736FE6B
:104B50000146684600F010F92DE03B4B9A689142FF
:104B60006BDA5B68182202FB013730463946424651
:104B7000FCF78AFA3B7A032B02D0042B5BD115E0B9
:104B8000396901B10988684600F0F6F82A460146FD
:104B90002046FCF779FA334920462A46FCF774FA96
:104BA000396909B1023107E02F4905E06846D7E9C4
:104BB000042300F0CBFB014620462A46FCF764FAAA
:104BC00039E0214B1A69914237DADB68142202FB83
:104BD0000137304639464246FCF756FA30462349FB
:104BE0004246FCF751FA3B7A032B02D0042B05D145
:104BF00007E01F4920462A46FCF746FAB846002639
:104C000015E020461B49F6E726B120461A492A46F8
:104C1000FCF73AFAB8F90A10684600F0ADF82A46EF
:104C200001462046FCF730FA013608F1020897F9F0
:104C300009309E42E8DB012000E000200BB0BDE817
:104C4000F08300BF0AA10100F800001015A10100C7
:104C5000A89801001EA1010029A10100C4A0010023
:104C600032A101003AA1010005A101004CA10100FF
:104C70004EA101005AA101003C980100AFF3008051
:104C800007B5054B0146187800230093082201332D
:104C900010F025F90EBD00BFDC08001010B5044669
:104CA0000DF062FB034B21461878BDE8104010F070
:104CB000EEB800BFDC08001008B5084B187810F0FB
:104CC000FCF8002808DA0DF07FFB002804DA012048
:104CD000FBF7D6FD4FF0FF3008BD00BFDC08001029
:104CE00008B5FFF7E9FF0028FBDB08BD10B5044657
:104CF00001E0FFF7D3FF14F8010B0028F9D110BD34
:104D00000048F3E719A301000048EFE71EA30100E4
:104D10000048EBE723A301000048E7E72BA30100CD
:104D2000F8B504464F1E0025FFF7C6FFA0F120038B
:104D30005E2B064606D8BD420FDAFFF7AFFF665579
:104D40000135F1E77F2801D0082806D1002D04DDC8
:104D50000748FFF7CBFF013DE6E70D2E01D00A2EF5
:104D6000E2D10448FFF7C2FF002363552846F8BD8F
:104D7000B995010083970100002310B5CC0FC374CF
:104D800018BF494200F1120318460A2391FBF3F2BF
:104D900003FB121330330370431E111EF4DC14B1F5
:104DA00018462D23037010BD7FB5014601A8FFF7FB
:104DB000E3FFFFF79BFF07B000BD70B5044608484E
:104DC0000D46FFF793FF2046FFF790FF0548FFF7DA
:104DD0008DFF2846FFF7E8FF0348BDE8704085E7F0
:104DE0002FA301003DA30100AFAF010070B50D4638
:104DF00004460848FFF77AFF2846FFF7D5FF3B2017
:104E0000FFF74CFF2046FFF7CFFF4820BDE870407A
:104E100044E700BF47A30100002330B5CD0FC374A2
:104E200018BF494200F1120318460A2391FBF3F41C
:104E300003FB1413013A30330370431E002A21464A
:104E4000F2DC15B118462D23037030BD002310B5D8
:104E5000C37400F11203054C01F00F02A25C0909B2
:104E6000184603F80129F6D110BD00BF09A30100BF
:104E700070B50023054610F8012BA2F13004E6B20C
:104E8000092E02D804EB0313F4E7A2F14104E4B2C3
:104E9000052C01D8373A05E0A2F16104E4B2052CF3
:104EA00003D8573A02EB0313E4E701B10D6018464B
:104EB00070BD70B50E4686B0054602E020780FF052
:104EC000E6FF15F8011B0D4C49B13D29F6D10CE068
:104ED00020780FF0DCFF15F8011B0029F8D12078AD
:104EE0000A210FF0D4FF06B070BD20780FF0CFFF7D
:104EF00001A83146FFF740FF0546ECE7DC0800104B
:104F000070B50E4686B0054602E020780FF0BFFF70
:104F100015F8011B0D4C49B13D29F6D10CE0207864
:104F20000FF0B5FF15F8011B0029F8D120780A21F0
:104F30000FF0ADFF06B070BD20780FF0A8FF01A8FC
:104F40003146FFF783FF0546ECE700BFDC080010A1
:104F50002DE9F0410C461646074602E028780FF08E
:104F600096FF17F8011B0B4D0029F7D124B90AE071
:104F700028780FF08CFF013E14F8011B19B10A29A3
:104F800001D0002EF4DC28780A21BDE8F0410FF0B2
:104F90007EBF00BFDC08001010B50C46FFF7A6FE70
:104FA0002046FFF701FF0A20BDE8104076E610B565
:104FB0000C4686B0FFF79AFE214601A8FFF746FF90
:104FC000FFF794FE0A20FFF769FE06B010BD10B58A
:104FD000034602E003F8014B013A11F8014B0CB112
:104FE000002AF7D110BDA0F16103192B09D9A0F156
:104FF0004103192B07D9303809288CBF0020012024
:1050000070470120704701207047A0F16103192B00
:1050100005D9413819288CBF002001207047012094
:10502000704720385E288CBF002001207047303840
:1050300009288CBF00200120704720280BD00928A8
:1050400009D00D2807D00A2807D0A0F10C03584238
:1050500040EB03007047012070470120704738B5CE
:105060000446254614F8010BFFF7E7FF0028F8D1A6
:10507000284638BDF8B50E46FFF7F1FF047805461F
:10508000A4F12D02544244EB020404B1451C2F78D4
:105090003846FFF7CCFFD0B1302F04D16B78782B96
:1050A00004D0582B02D02B46002004E0A81C314627
:1050B000FFF7DEFE0DE01D4613F8012B303AD1B2AA
:1050C000092904D802EBC00202EB4000F3E706B165
:1050D000356004B14042F8BD2DE9F04F85B08A46F5
:1050E000FFF7BDFF03782B2B08BF01300378A3F136
:1050F0002D056B4243EB0503039303B101300378A5
:10510000302B03D00026044635461FE04378782B29
:1051100001D0582BF6D15146FFF7ACFF13F0CCF974
:1051200006460D46A4E00022594B3046294613F0AE
:1051300039FA064640460F4613F0CEF902460B46B2
:105140003046394613F07CF806460D46274614F8DB
:10515000013BA3F130085FFA88F2092AE3D92E2B2C
:105160002AD14C4900203B46CDE900011AE046A374
:10517000D3E90023DDE9000113F014FACDE90001C1
:10518000404613F0A9F902460B46DDE9000113F091
:1051900009FA0B4602462946304613F051F82346D9
:1051A00006460D4693F801805C1CA8F130085FFAB2
:1051B00088F3092B2746DAD93B78652B01D0452B9C
:1051C00051D17A787B1C2B2A08BF01331A78A2F1BF
:1051D0002D014A4242EB010202B10133002403E0F7
:1051E00001EBC40101EB440419781F463039C8B201
:1051F00001330928F4D902B164425FEAD47B244B1D
:1052000018BF644200224FF00008DFF88890CDE913
:10521000002313E014F0010F07D040464946DDE9B2
:10522000002313F0BFF980468946DDE900010246FC
:105230000B4613F0B7F9CDE900016410002CE9D159
:10524000BBF1000F07D042464B460020114913F036
:10525000D3FA804689463046294642464B4613F0EB
:10526000A1F906460D46BAF1000F01D0CAF8007048
:10527000039B0BB105F100453046294605B0BDE85A
:10528000F08F00BFAFF300809A9999999999B93F2F
:10529000000024400000F03F70B50446264614F894
:1052A000015B2846FFF7C9FE08B10A2DF6D130464A
:1052B00070BDA0F16103192B98BF20387047A0F191
:1052C0004103192B98BF2030704730B503460024A6
:1052D00005E01D5D085D013A0134281A02D1002A5B
:1052E000F7D1104630BD034602E003F8011B013A36
:1052F000002AFAD17047884210B503460FD98918A1
:10530000831804E011F8014D013A03F8014D002A19
:10531000F8D110BD11F8014B013A03F8014B002AF6
:10532000F8D110BD10B5034604E011F8014B013A65
:1053300003F8014B002AF8D110BD03460A7803F8A0
:10534000012B11F8012B002AF8D170472DE9F04FFD
:105350001946074615461C46104689B00022002310
:1053600013F088FB10B138466D490FE028462146FE
:1053700005F012FE012802D138466A4906E02846A7
:10538000214605F009FE28B967493846FFF7D5FFE1
:105390000746CEE1284621460022002313F074FB85
:1053A00030B1B8462D2304F1004408F8013B00E079
:1053B000B8462846214642A3D3E9002313F082FBD6
:1053C000064600286FD0002609E0284621463EA365
:1053D000D3E9002313F0E6F8203605460C462846AC
:1053E00021463BA3D3E9002313F062FB0028ECD154
:1053F0002846214638A3D3E9002313F059FB48B1CE
:105400002846214636A3D3E9002313F0CBF8103603
:1054100005460C462846214633A3D3E9002313F062
:1054200047FB48B12846214631A3D3E9002313F0B6
:10543000B9F8083605460C46284621462EA3D3E97E
:10544000002313F035FB48B1284621462CA3D3E9AD
:10545000002313F0A7F8043605460C4628462146DB
:105460000022324B13F024FB48B12846214626A3E4
:10547000D3E9002313F096F8023605460C46284679
:10548000214600222A4B13F013FB002800F0BE80B7
:10549000284621461EA3D3E9002313F083F80136E2
:1054A00005460C46B2E0284621461BA3D3E900235B
:1054B00013F0EAFA002800F0A88045E0AFF300807E
:1054C0000000000065CDCD4133A7A8D523F64939AA
:1054D000176E05B5B5B893460080E03779C34143F0
:1054E000BC89D897B2D29C3C0000000084D7974179
:1054F0003A8C30E28E79453E000000000088C340BF
:105500002D431CEBE2361A3F7B14AE47E17A843F11
:105510009A9999999999B93F95D626E80B2E113EFB
:105520004AA301004CA3010050A301000000594010
:10553000000024402846214681A3D3E9002313F02C
:1055400031F8203E05460C46284621467EA3D3E985
:10555000002313F099FA0028ECD1284621467CA3B9
:10556000D3E9002313F090FA48B1284621467AA3E4
:10557000D3E9002313F016F8103E05460C462846E2
:10558000214677A3D3E9002313F07EFA48B12846D9
:10559000214675A3D3E9002313F004F8083E05461D
:1055A0000C462846214672A3D3E9002313F06CFA77
:1055B00048B12846214670A3D3E9002312F0F2FF38
:1055C000043E05460C46284621466DA3D3E9002338
:1055D00013F05AFA40B12846214600226E4B12F0D1
:1055E000E1FF023E05460C462846214600226B4B51
:1055F00013F04AFA50B1284621460022684B12F0B7
:10560000D1FF013E05460C4600E006465EA3D3E905
:1056100000232846214612F0C5FF02460B462846C5
:10562000214612F00DFE00225D4B82468B4613F0A0
:105630003FFA50B14EB15046594651A3D3E9002329
:1056400012F0B0FF013682468B465046594605F0AF
:105650000FFC13F041FA044612F03EFF02460B46DF
:105660005046594612F0EAFDCDE90001214603A853
:10567000FFF782FB01464046FFF75FFE4446237872
:1056800008F10108002BF9D141A3D3E900235046CA
:10569000594612F087FF00224FF480138046894656
:1056A00013F0F2F918B14FF000084FF48019DDE95A
:1056B000000142464B4613F005FA00282BD02E235A
:1056C00023702546DDE900010022354B12F06AFF08
:1056D000002282468B46324B4046494612F062FF1A
:1056E000804689465046594613F0F6F900F13003DA
:1056F00005F8013F12F0F0FE02460B4650465946AF
:1057000012F09CFD42464B466C1CCDE9000113F0A3
:10571000D9F90028D6D15EB1452304F8013B3146C2
:1057200003A8FFF729FB01462046FFF706FE00E02D
:105730002670384609B0BDE8F08F00BFAFF3008097
:10574000176E05B5B5B8934680688965D639803936
:105750001656E79EAF03D23C0080E03779C3414341
:1057600048AFBC9AF2D77A3E0000000084D7974138
:10577000FCA9F1D24D62503F000000000088C340F8
:105780009A9999999999B93FBCBDD7D9DF7CDB3DEE
:1057900095D626E80B2E113E000059400000F03F40
:1057A0000000244010B5034602E003F8014B013A23
:1057B00052B111F8014B002CF7D103E0002103F89E
:1057C000011B013A002AF9D110BD10B50346044669
:1057D000184613F8012B002AFAD1FFF7AEFD204638
:1057E00010BD38B504460346184613F8015B002D7A
:1057F000FAD1FFF7D7FF204638BD03461A4613F803
:10580000011B0029FAD1101A704701E08A4205D025
:10581000027803460130002AF8D113461846704733
:1058200010B50346024610F8014B002CFAD103E0F4
:1058300012F801498C4203D09A421046F8D2002057
:1058400010BD034602E00131101A06D113F8012BF6
:105850000878002AF7D10028F5D1704770B50446C2
:105860000D4608E0FFF725FD064615F8010BFFF78A
:1058700020FD301A07D114F8010B0028F2D12E7840
:10588000002EEFD1304670BDF8B5144605460E46E1
:1058900009E0FFF70EFD074616F8010BFFF709FDBB
:1058A000381A0AD1013C15F8010B08B937781FB135
:1058B000002CEED12046F8BD3846F8BD10B50346A1
:1058C00004E011F8010B201A08D1013A13F8014B3A
:1058D0000CB9087810B1002AF3D1104610BD104A57
:1058E00045F21541138842F298304B43B2F9021049
:1058F00010B5414301F55A51513144F6E34091FB53
:10590000F0F400FB141103F570530D335B045B0CD2
:1059100089B2138081EA0303518018B210BD00BF21
:1059200098020010C30B044A5B0440045B0C400C5B
:10593000138043405380704798020010AFF30080FB
:10594000084B094A1988118059885180074A99885B
:105950001180D9885180064A19895B89118053804A
:10596000704700BF040000106410001060100010A9
:105970002810001010B50CF055FD0BF0F5FF0DF0E0
:10598000F7FBBDE810400DF041BE37B50C4601A94C
:10599000FFF770FB019B05461A782E2A01D10133CF
:1059A0000193019801A9FFF765FB019B1A782E2A44
:1059B00001D10133019340EA0525ADB22B0A43EA38
:1059C00005252580019801A9FFF754FB019B054699
:1059D0001A782E2A01D101330193019801A9FFF70A
:1059E00049FB40EA0525ADB22B0A43EA052565804F
:1059F0003EBD10B596B04B4801A95022FAF744FEBF
:105A000090B19DF80400FFF754FC592809D09DF887
:105A10000400FFF74EFCA0F15403584240EB030092
:105A200000E00120404B1873404801A95022FAF7CA
:105A30002BFE78B1002101A8FFF71CFB00210446D2
:105A400001A8FFF717FB80B2A4B2000A364B40EA68
:105A50000424DC81364801A95022FAF715FE78B1FA
:105A6000002101A8FFF706FB0021044601A8FFF76B
:105A700001FB80B2A4B2000A2B4B40EA04241C8232
:105A80002C4801A95022FAF7FFFD28B101A80021F6
:105A9000FFF7F0FA244B5882274801A95022FAF761
:105AA000F3FD78B1002401A815A9FFF7E1F9234B14
:105AB0001855159803783A2B04D10134062C01D0DF
:105AC0000130F1E71E4801A95022FAF7DDFD18B1B7
:105AD00001A81549FFF759FF1A4801A95022FAF702
