:10000000E07F0010CD0000001D0100001F01000076
:100010002101000023010000250100000000000074
:1000200000000000000000000000000027010000A8
:1000300029010000000000002B010000D5DF0000B6
:100040002F0100002F0100002F0100002F010000F0
:100050002F010000CDF1000035F200002F0100005B
:100060002F0100002F0100002F0100002F010000D0
:100070002F0100002F0100002F0100002F010000C0
:100080002F0100002F0100002F0100002F010000B0
:100090002F0100002F01000065EC00002F0100007F
:1000A0002F0100002F0100002F0100002F01000090
:1000B0002F0100002F0100002F0100002F01000080
:1000C0002F0100002F0100002F01000000200C492B
:1000D0000C4A914204D0914202D208600431FAD312
:1000E00009490A4A0A4B9A4206D09A4204D2086841
:1000F000106004310432F8D30648804706480047B0
:10010000E800001078130010D86301000000001010
:10011000E80000106D27010089090000FEE7FEE7F6
:10012000FEE7FEE7FEE7FEE7FEE7FEE7FEE7FEE7A7
:10013000026813780BB1013202601846704701481B
:1001400004F0F8B97332010010B5044668B10078C4
:1001500004F0F3FB592809D0207804F0EEFBA0F15D
:100160005403584240EB030010BD10BD012010BDE8
:100170000A2004F0B7B900B50B4B95B01B781BB93A
:100180000A4804F0D7F90CE068464F2108F096FDC4
:1001900038B9074804F0CEF9684604F0CBF9FFF708
:1001A000E7FF15B000BD00BFE80000108A32010073
:1001B0009932010010B5044650B1064804F0BAF96E
:1001C000054B53F8240004F0B5F9BDE81040CFE723
:1001D00010BD00BF9F3201004800001010B504F0B0
:1001E0008FF904F0AAFB5928044601D04E28F6D115
:1001F000204604F077F9FFF7BBFFA4F15902504203
:1002000040EB020010BD38B50C4804F093F904F03F
:100210008BF90A4D044602E0094804F08BF915F801
:10022000013B002BF8D1512C05D0A4F171014842BB
:1002300040EB010038BD012038BD00BF5031010046
:10024000AD32010013B5094C094801A96A46009472
:1002500008F0FDFE38B9A3780199064859434908CA
:1002600004F0BEFA01E0FFF7A5FF1CBD90080010E6
:10027000B0320100B132010010B50F4C63780BB9F8
:100280000EF00AF90D4804F055F900200C4908F069
:1002900048FAD0F1010338BF002323702BB9064B75
:1002A0005B7823B9FFF786FF01E0FFF7CBFF01235F
:1002B0006370BDE810405BE7E8000010BF3201004A
:1002C0009008001013B50446A0680DF10701012243
:1002D0006B4608F0D5FA18B9009B012B06D001E057
:1002E0000123236000238DF8073005E09DF80730D7
:1002F000002BE9D00D2BE7D09DF807001CBD70B591
:100300002548ADF51E7D04F015F94F2189A804F0AC
:100310002BF989A804F0C7FA03780146002B37D0DF
:100320006846012208F00CFA044610B1FFF742FFBC
:100330002EE01A4804F0FEF8684689A950229DABC9
:1003400008F09EFA0546A8B1FFF734FF18E089AE21
:10035000705D04F0C7F8735D0A2B0AD10134132CC9
:1003600007DDFFF750FF18B151239D93002404E0EF
:10037000044601359D9B9D42E9D39D9B502BDBD0CC
:10038000074804F0D7F8684608F05BFCFFF7F0FE7A
:100390000DF51E7D70BD00BFD4320100E0320100BA
:1003A000F432010010B52648ADF5207D04F0C2F806
:1003B0004F2189A804F0D8F889A804F074FA0378CA
:1003C0000446002B38D068462146032208F0B8F9CD
:1003D00088B105280CD11B4804F0ACF8FFF7FEFEED
:1003E000002829D068462146072208F0A9F910B153
:1003F000FFF7E0FE20E000239D939E93124A6B449A
:100400009F939DAB1360114A1360114A114B1A6000
:10041000114B124A1A6007F0EBF99D9B23B968460D
:1004200008F089FE0E4800E00E4804F083F86846A4
:1004300008F007FCFFF79CFE0DF5207D10BD00BF06
:100440000A33010016330100CC0A0010C80A00105C
:10045000C5020000C40A0010D00A001069040000A0
:100460003F3301004B33010030B50C46496885B07D
:10047000019031B901256560A06808F0BFFC00B1AA
:100480002560236873B9019B002B0BDDA06801A9CF
:10049000012203AB08F0B0FA10B9039B012B01D085
:1004A00001232360206805B030BD38B50D4D0446EA
:1004B000AB78ABB96B689BB9002805DB0FF0C8F8C7
:1004C0008442A8BF002400E01C4620462C720FF096
:1004D000C1F8054B186020460FF0C2F8034B1860B6
:1004E00038BD00BFE80000107C080010780800103C
:1004F00010B5064CA07838B9636833B940F234407F
:1005000004F036FE606010BD002010BDE800001051
:1005100010B5044C606818B105F0E6FD0023636077
:1005200010BD00BFE800001010B5ADF5207DFFF74D
:10053000DFFF10B9FFF703FE49E0264803F0FAFF9A
:100540004F218AA804F010F88AA804F0ACF90378C7
:100550000446B3B101A82146012208F0F1F840B9E0
:1005600001A808F06EFB1C4803F0E4FFFFF736FE1D
:1005700038B101A821460A2208F0E2F820B1FFF7BD
:1005800019FEFFF7C5FF22E0144B5C68144B2046B0
:10059000196803F081FD06E001A89FA901229EAB26
:1005A00008F02AFA30B9204603F082FD9F90002817
:1005B000F2D102E0FFF7FEFD02E00A4803F0BAFFC5
:1005C00001A808F03EFBFFF7A3FFFFF7D1FD0DF5F3
:1005D000207D10BD6433010073330100E80000107A
:1005E0007C0800109333010070B515460022C0F856
:1005F0001C23049AC0F82433C0F8202304460E4676
:1006000003F07EFD04F1080031462A46BDE8704043
:100610000DF0EEBEF8B507460E4604F006FA194B8B
:100620000546186824E00A2B08BF013004F078F969
:1006300003780446232B17D039462A4604F03CFAA7
:1006400090B9635D3D2B0FD1681C201804F068F948
:100650000346194613F8012B0A2A01D0002AF8D1C3
:1006600076B10B1A3360F8BD20460A2104F0E5F993
:1006700030B103781BB1FF2BD5D10020F8BD18464F
:10068000F8BD00BFD800001037B50C4601A91546CB
:10069000FFF7C0FF014608B920700CE0019B013D47
:1006A000AB42C8BF0195019A204604F093F9019B23
:1006B0000022E25401203EBDF8B504460D46164620
:1006C0001F4603E014F8010B3946B0472B689C42E3
:1006D000F8D32C60F8BD30B5B0F1FF3F85B00C46C3
:1006E0001ED1D1F81C33D4F82423CB1803F58E7314
:1006F00004A941F8043D04F58E7004F108031AB111
:10070000274AFFF7D9FF04E000932246244B03F069
:10071000FBFC4FF0FF3004F108010DF072FE3DE0EC
:1007200000280BDBD1F81C33B3F5FF7F09DCCA18B6
:10073000013382F81C01C1F81C3302E010F1020FF2
:1007400007D0D4F820334BB3D4F81C33B3F5887FEB
:1007500024DBD4F8242304F5077304A941F8043DED
:1007600004F58E7004F108031AB10D4AFFF7A4FFD7
:1007700004E0009322460A4B03F0C6FC039904F5FB
:100780008E7504F547722846521A04F0F8F8D4F82A
:100790001C33ED18039BED1AC4F81C5305B030BD93
:1007A00003E4000070B5ADF5207DFFF7A1FE10B9A0
:1007B000FFF7C5FC55E02C4803F0BCFE4F218BA889
:1007C00003F0D2FE8BA804F06EF8037801463BB12B
:1007D00002A8012207F0B4FF034620B1FFF7EAFCAC
:1007E000FFF796FE3DE0214A546801220092204A1C
:1007F0000C3411681F4A20461268FFF7F5FE02A864
:100800008BA950229FAB08F03BF8064608B9054675
:100810000BE0FFF7CFFC0DE08BAB585D20B10D284E
:1008200002D02146FFF757FF01359F9B9D42F3D32E
:10083000502BE4D000202146FFF74DFF21464FF01A
:10084000FF30FFF748FF02A808F0FBF90A4B0B48FE
:10085000002E08BF184603F06DFEFFF759FEFFF7A4
:1008600087FC0DF5207D70BDD3330100E80000103A
:100870007C08001078080010A2330100B233010098
:1008800008B510B903F082FB08B904F0A9FB034BCB
:10089000587AD0F1010038BF002008BDE8000010F0
:1008A00070B5061E0C4615461CDB0EF0D1FE8642C6
:1008B0001BDA30460EF0CEFE07E0A3F12002D2B2E2
:1008C0005D2A98BF05F8013B013C10F8013B5A1E18
:1008D000D2B2FD2A03D80A2B01D0002CEDDC002077
:1008E000287070BD4FF0FF3070BD4FF0FF3070BD0D
:1008F00030B51E4D95B01E4803F01CFE287A03F05B
:1009000077FE00244F2120466A46FFF7C9FF0028E2
:100910000DDB184803F00EFE204603F069FE164872
:1009200003F008FE684603F005FE0134EAE71348C9
:1009300003F000FE03F0F8FD2F2804460DDD0EF055
:1009400087FE2F30A04208DB2046303C03F0CAFD72
:10095000E0B22872FFF7A9FD02E0094803F0EAFDC2
:10096000084803F0E7FD15B030BD00BFE8000010F7
:10097000E2330100F1330100F933010005340100D5
:1009800018340100773401002DE9F04FABB00DF0C1
:1009900094FB994B00221A60984829A9FFF73AFE68
:1009A000974C10B1FFF7D0FBA072964829A9FFF72A
:1009B00031FE10B1FFF7C8FBE072934829A9FFF799
:1009C00029FE10B1FFF7C0FB2073904829A9FFF75B
:1009D00021FE18B1002103F071FF60738C4829A932
:1009E000FFF718FE18B1002103F068FF2072894953
:1009F00089481022FFF748FE884829A9FFF70AFE18
:100A000020B1002103F05AFF854B1870854829A9B1
:100A1000FFF700FE844E18B1002103F04FFF306055
:100A2000306803F051FD814803F084FD0DF007FCB0
:100A3000207AFFF73AFDE37A33B904F0F0F87C4806
:100A400003F078FD04F0BEF9237B0BB9FFF714FC2B
:100A5000A37A13B1774803F06DFD637B0BB1764D3C
:100A60005D43764804F0FEF9FFF785FB744803F018
:100A700061FD03F045FD03F060FF013D4828064697
:100A800001D03F2803D16F4803F054FD44E25228BF
:100A900007D00DB9637B23B9677ADFF86481002F33
:100AA0003AD06768564E17B1FFF749FB31E0664808
:100AB00003F040FD654B18680368B3F1FF3F25D094
:100AC00003F0AEF9B0F1FF3F20D001237372B7738A
:100AD000B37004E0A37B13B903F040F920B9002000
:100AE000FFF7CEFE0028F5D0637A5BB1584803F0DB
:100AF00021FD584D03F004FD042803D0637A0BB1A7
:100B0000013DF7D203F048FA0023A370524803F0E6
:100B100011FD00236372A0E7112E02D10DF0EAFA55
:100B2000FAE1502E62D1FFF7E3FC002800F0FF80CD
:100B3000D8F80460494BDFF81491009706F10C08CF
:100B400040461A68D9F800103B46FFF74DFD44486F
:100B500003F0F0FCD6F82833B3F5887F03D11320D7
:100B600003F0C0FC0127DFF800B1D6F82833B3F555
:100B7000FF7F0DDA03F0C4FCB0F1FF3F824603D0E3
:100B8000BBF1000F10D105E0BBF1010BEDD101E08D
:100B90004FF0FF3A47B16FF001004146FFF79BFD70
:100BA000112003F09FFC0027BAF10D0F08D0BAF115
:100BB000000FCFDDBAF1040F14BF5046002002E051
:100BC0004FF00A0A50464146FFF785FDBAF1040F7F
:100BD000C0D141464FF0FF30FFF77DFD316AD9F8B3
:100BE00000302048C91A03F006FE9DE0422E3DD198
:100BF000FFF77EFE31E700BF7413001020340100C0
:100C0000E8000010293401002F34010037340100BE
:100C100043340100800800104834010051340100C1
:100C20007408001059340100000000106234010003
:100C3000793401009434010020A10700A734010099
:100C40006931010099310100AC3401007C080010C9
:100C5000BB340100404B4C00D83401007808001030
:100C6000E53401001D350100E09304004C2E24D131
:100C7000FFF73EFCB8B1AA4803F05CFCD8F804606A
:100C8000A84B3046196803F007FA01E003F02AFC8C
:100C9000304603F00DFA0028F8D1A34803F04AFCCF
:100CA000FFF736FC01E0FFF74AFAA04803F042FCE8
:100CB00003F03AFC0428FBD1CFE6452E01D04B2EA1
:100CC00038D1FFF715FC002831D04B2E984E0FD1AC
:100CD000984F6068396803F0DFF901236068964A2D
:100CE00000930C3039681268FFF77EFC934B0FE0DD
:100CF0008C4F6068396803F0CFF901230093606876
:100D00008F4B0C301A6839680023FFF76DFC8D4B50
:100D10008D4A336063688D4913608D4A0C331160CE
:100D20008C4A136006F064FDFFF7F2FB95E6FFF7CF
:100D300006FA92E6442E40F0AD80FFF71CFAFFF76A
:100D400017FA17A8844908F007F90646002840F06A
:100D5000AD80074617A81EA908F02FF9002840F01B
:100D60008E809DF88130002B00F089802021332275
:100D700003A803F0FCFDBDF87C100422490A01F52C
:100D8000F6610C3124A803F06BFC0422014603A891
:100D900003F041FDBDF87C10022249094FF02F08F5
:100DA00001F00F0124A88DF8108003F059FC0222F5
:100DB00001460DF1110003F02EFDBDF87C1002225A
:100DC00001F01F0124A88DF8138003F049FC0222D2
:100DD000014605A803F01FFDBDF87E100222C90AD6
:100DE00024A803F03DFC022201460DF1170003F098
:100DF00012FDBDF87E103A234909022201F03F019D
:100E000024A88DF8193003F02BFC022201460DF1C5
:100E10001A0003F000FD9DF8803013F0100F04D08D
:100E20000DF11E004D49052207E01E9924A803F08C
:100E3000C7FB092201460DF11E0003F0ECFC0C2259
:100E40000DF181010DF12A0003F0E5FC002303A858
:100E50008DF8363003F06EFB0A2003F043FB9DF85B
:100E6000803013F0100F18BF01360137142F7FF7B1
:100E700071AFFFF7C8F9002833D107466AE7FFF7DB
:100E800077F9304603F0B4FB354803F053FBFFF726
:100E9000D9F926E04D2E02D1FFF7EEF9DDE5552E0A
:100EA00009D10020014607F03CFC10B1FFF782F9A0
:100EB000D3E52C48CFE5432E16D12B4803F03AFB5F
:100EC0004F2103A803F050FB03A803F0ECFC0378C8
:100ED000002B3FF4C2AD03A807F0C2FE08B1FFF734
:100EE00069F9FFF745F9B8E54F2E02D1FFF75AFC33
:100EF000B3E5532E02D1FFF717FBAEE5562E02D114
:100F0000FFF7FDF9A9E5462E02D1FFF74BFAA4E55C
:100F1000B6F1FF3F7FF4A1AD0120FFF7B1FCA8E5DA
:100F2000323501007C0800104535010056350100BE
:100F3000C40A0010D8000010DC00001031010000CD
:100F400078080010B1400000CC0A0010D70600005D
:100F5000D00A0010C80A0010B03201006735010045
:100F60006D350100763501008C35010010B5024663
:100F700090F909100023012003E0B2F90840013381
:100F8000604302328B42F8DB10BD034B9A6A02B118
:100F900000B99862704700BFF8000010F8B5457AB4
:100FA0000E466BB2044600220EE0B4F90AC036F9D0
:100FB000027BBC4502DB0234002F04DC0520FFF776
:100FC000E4FF0020F8BD01329A42EEDB6DB2013D34
:100FD00031F9152000EB43045D1E013A083401EBA2
:100FE000450106E031F9025D34F9026D013D06FB71
:100FF0000252013B002BF5DC037A042B01D0032BBA
:1010000003D1006900EB8200F8BD0020F8BD073075
:1010100020F007007047084B586A1A8E8218117822
:10102000134601320A2901D1134601E00029F6D105
:10103000181A80B2704700BFF8000010032814D0BF
:10104000222812D0062810D000F17D03DBB26F2BCE
:101050000DD8084B833803EB001090F90800A0F17D
:101060000403584240EB0300704701207047002002
:10107000704700BF9C35010010B500E0013A0478CC
:1010800003460130002CF9D107E0A0F12004E4B2BE
:101090005E2C9CBF03F8010B013A11F8010B08B15B
:1010A000002AF2DC00221A7010BD2DE9F8430C462C
:1010B000914603F0F8FB0025804607460BE0013718
:1010C000072D04D017F8013C6355013503E00320D8
:1010D000FFF75BFF06E018F805003E4603F0A7FBAC
:1010E0000028ECD133783A2B0DD0242B08D1062DD3
:1010F00003DC63550136013502E00320FFF745FFAD
:101100003378282B07D1062D02DC6355013502E028
:101110000320FFF73AFF00236355C9F80050BDE8EC
:10112000F883174B2DE9F0471F6982460C46013FB3
:101130000025994619E0EE1976104FF0140808FBC7
:1011400006F8D9F80C005146404403F09FFC0028F3
:1011500001DD771E09E001D0751C06E004B12660B0
:10116000D9F80C004044BDE8F087BD42E3DD1CB176
:1011700025600020BDE8F0872046BDE8F08700BF6D
:10118000F8000010154B2DE9F0479F6882460C4689
:10119000013F0025994617E0EE197610D9F80400B2
:1011A0004FEA06184044514603F070FC002801DD68
:1011B000771E09E001D0751C06E004B12660D9F85D
:1011C00004004044BDE8F087BD42E5DD1CB1256068
:1011D0000020BDE8F0872046BDE8F087F800001049
:1011E0004FF6E853994210B50C4608DC043105F07F
:1011F000CEF928B1048000230419A37010BD00208B
:1012000010BD01460020EBE738B505460088FFF722
:10121000F8FF044620B10230A91C2A8803F0AFFB76
:10122000204638BDF8B50446238808880E46C01805
:10123000FFF7E7FF054658B1871CA11C22883846F6
:1012400003F09DFB2088B11C3818328803F097FB0F
:101250002846F8BD70B5064608460D46FFF7D1FF93
:10126000044620B1023031462A4603F088FB20466E
:1012700070BDF8B5038821EAE1719942B4BF0E460A
:101280001E46B718B742B8BF37469F42D4BFC6EB19
:101290000707C6EB030705463846FFF7B2FF0446CB
:1012A00038B1002F05DDA91C023089193A4603F038
:1012B00066FB2046F8BD38B58B6805460C469BB9E1
:1012C000206849680388994208D14031FFF788FFB8
:1012D00008B1206002E00123A36038BD6368226882
:1012E000D21801339570636038BDF7B5164C01A96B
:1012F000A668FFF747FF254618BBA068FFF787FEE3
:10130000013607463046FFF782FE874201460AD083
:101310006068090105F03BF9044618B90220FFF79F
:1013200034FE0FE06860019B6C68AA6804EB03144C
:10133000D21A04F110002146120103F020FBAE6026
:1013400000E000242046FEBDF800001070B5234DDB
:10135000E86903F0E5FA044600782E4608B92C62E5
:1013600070BD03F088FA08B909E02C466078651C66
:1013700003F05DFA0028F8D13562013070BD2078A5
:1013800003F067FA002825D000E02C466078651C41
:1013900003F04DFA0028F8D12B78282B13D03A2BE4
:1013A00002D0242B13D103E001353562072070BD34
:1013B0006A786B1C282A03D103343462062070BD7E
:1013C0003362032070BD01353562052070BD356282
:1013D000042070BD631C2B62207870BDF8000010E3
:1013E00010B50A4C94F83031834201D0012008E056
:1013F000236AE361FFF7AAFF022884F8300103D1D2
:101400000138BDE81040C0E510BD00BFF800001075
:1014100010B5FFF7E5FF2820BDE81040E0E708B56C
:10142000054B93F83031834203D1FFF7D9FF0120F8
:1014300008BD002008BD00BFF800001008B5CC2092
:10144000FFF7CEFF074B5A6C002A05DC1320FFF78D
:101450009CFD4FF6FF7008BD511E3732596433F8BA
:10146000120008BDF800001038B50C4CCB20FFF777
:10147000B7FFA56C072D05DD1420FFF786FD4FF69D
:10148000FF7038BDFFF7C7FD05F14003013524F8B3
:101490001300A5644FF6FE7038BD00BFF8000010C1
:1014A0002DE9FF411C4C94F83051072D01D001204B
:1014B0002BE0E06901A903AAFFF7F7FD2846FFF733
:1014C0008FFF6369A669FBB1013E00251AE0AF19E1
:1014D0007F104FF00A0808FB07F8606901A9404433
:1014E00003F0D4FA002801DD7E1E0BE001D07D1C44
:1014F00008E0094B5B69434418894FF6FD73984235
:1015000007D101E0B542E2DD1620FFF73EFD4FF6C0
:10151000FD7004B0BDE8F081F800001010B50B4C70
:10152000C220FFF75DFF94F83031072B06D1FFF79B
:10153000B7FFA36A33B9A4F84E0003E04FF0FF33BE
:10154000A4F84E304FF6FE7010BD00BFF80000103A
:1015500010B5AC20FFF744FFBDE81040A0E770B520
:10156000AB20FFF73DFFFFF79BFF0A4C0646656C7B
:10157000072D05DD1220FFF708FD4FF6FF7607E087
:10158000FFF749FD05F13803013524F813006564C0
:10159000304670BDF8000010982008B5FFF720FF16
:1015A0004FF6FF7008BD10B58320FFF719FF044BFD
:1015B00000229A645A641A64BDE8104070E700BFC4
:1015C000F800001010B5044603F02FFA014620463B
:1015D000BDE810403EE610B5EC20FFF701FFBDE886
:1015E000104009F067BF7FB5E220FFF7F9FE01A8C0
:1015F0000CF0B5FD01A8FFF7E5FF07B000BD10B581
:10160000B320FFF7EDFEBDE8104002F079BF70B5E2
:10161000054686B03220FFF7F4FD0446002800F0AE
:101620008880861C20213222304603F0A0F90C224B
:10163000304605F1090103F0EEF82B7A042203F09D
:101640001003002B0CBF2D23442323742B7A01A8F5
:1016500003F00103002B0CBF2D23522363742B7A5C
:101660002F2603F00203002B0CBF2D234823A37465
:101670002B7A03F00403002B0CBF2D235323E374B8
:101680002B7A03F02003002B0CBF2D23412323755D
:10169000A988490A01F5F6610C3102F0E1FF042244
:1016A000014604F1160003F0B6F8A676A9880222D6
:1016B000490901F00F0101A802F0D2FF0222014600
:1016C00004F11B0003F0A7F86677A988022201F055
:1016D0001F0101A802F0C4FF0222014604F11E000E
:1016E00003F099F8E9880222C90A01A802F0B8FFBC
:1016F0000222014604F1210003F08DF83A2384F818
:101700002330E98801A8490901F03F01022202F0D3
:10171000A7FF0222014604F1240003F07CF82968A7
:1017200001A802F04DFF0922014604F1270003F051
:1017300072F8204606B070BD38B5084B01245B6ACC
:101740001D189D4207D918460A2103F076F910B1F9
:10175000431C0134F5E7204638BD00BFF8000010F7
:10176000932008B5FFF73CFE02F0F6FE4FF6FE7040
:1017700008BD922008B5FFF733FE02F0F1FE4FF6E8
:10178000FE7008BD10B58B20FFF72AFEBDE81040A3
:101790000DF05ABA882008B5FFF722FE0DF0E6FAE0
:1017A0004FF6FE7008BD10B58520FFF719FEBDE8A5
:1017B00010400DF01DBA2DE9FF41814C94F83051D5
:1017C000062D07D0222D03D0032D40F0BD8039E037
:1017D0000025B3E0694602AAE069FFF766FC2846E7
:1017E000FFF7FEFD68460021FFF79BFC0546E0B1D0
:1017F0000DF10A0700260BE000F0B0F927F8020F00
:1018000095F9093001369E4202D02C20FFF7E8FD01
:1018100095F909309E42EFDB284603A9FFF7BEFB8E
:1018200006462920FFF7DCFD02E00420FFF7ADFBB0
:10183000A36A2BB93068634B002808BF184618E02C
:10184000604816E06946E06902AAFFF72EFC2846C8
:10185000FFF7C6FD68460021FFF794FC20B1037A2C
:10186000032B04D1C06804E00420FFF78EFB04F5CD
:101870009A70FFF7C9FC76E0F06903F014F8F061A4
:10188000461C0CE00A2B55D0002B53D0137816467B
:101890000132222BF6D17378222B04D10236337811
:1018A0000BB13246F2E73378002B43D0301AFFF702
:1018B000A8FC074608B902203DE0E269C31C0132DA
:1018C0000EE0222902F1010006D15278222A0CD121
:1018D00003F8012C421C02E003F8011C024601330C
:1018E000117803F1FF3E0029EBD1BB1CC3EB0E03C3
:1018F0009BB23B800022FB189A709DB13946284666
:10190000FFF790FC8046384604F0EEFB284604F0D2
:10191000EBFBB8F1000F04D10220FFF736FB454680
:1019200046E04746E661013626622220FFF758FD71
:101930003D4603E00120FFF728FB20E094F830311A
:101940001F4E222B98D01AE005F17D03DBB26F2BDE
:101950000DD81D4B833D03EB051595F90830042B7D
:1019600003D1EB689847054609E00E2000E001200E
:10197000FFF70BFB0020FFF744FC05461BE0BDB161
:1019800094F830012B2816D1FFF72AFDFFF713FF3B
:10199000044668B128462146FFF744FC0646204627
:1019A00004F0A2FB26B1284604F09EFB354602E077
:1019B0000220FFF7EAFA284604B0BDE8F08100BF34
:1019C000F80000102C0200109C35010070B505468F
:1019D000FFF7F1FE0446B8B102882B88A81CA11CB1
:1019E0009A4228BF1A4602F0B4FF064640B92A8838
:1019F00023889A4204D001D9461C01E04FF0FF36FB
:101A0000204604F071FB00E00646304670BD70B51C
:101A1000514E96F83001FFF711FB002851D0FFF727
:101A2000CAFE0546002800F0938096F830013D2854
:101A300004D03E280CD03C283BD11CE0FFF7D0FC62
:101A40002846FFF7C3FFD0F1010438BF002434E07B
:101A5000FFF7C6FC3D20FFF7E2FC20B12846FFF768
:101A6000B5FFC04323E02846FFF7B0FF0028D4BFEE
:101A70000024012421E0FFF7B3FC3D20FFF7CFFC59
:101A800038B12846FFF7A2FF0028CCBF002401246C
:101A900013E03E20FFF7C3FC30B12846FFF796FF66
:101AA000041E18BF012408E02846FFF78FFFC40F6B
:101AB00003E00120FFF769FA0024284604F014FB34
:101AC00047E000F075F9044696F830013D2804D04F
:101AD0003E280BD03C283CD11CE0FFF781FC00F0F5
:101AE00067F9221A544244EB020432E0FFF778FC13
:101AF0003D20FFF794FC30B100F05AF98442B4BFA6
:101B00000024012425E000F053F98442D4BF0024CE
:101B100001241EE0FFF764FC3D20FFF780FC30B19C
:101B200000F046F98442CCBF0024012411E03E209D
:101B3000FFF775FC28B100F03BF9241A18BF012407
:101B400007E000F035F98442ACBF0024012400E036
:101B50000446204670BD00BFF800001010B5FFF726
:101B600056FF044600E001240F4B93F830018C2807
:101B700002D0C32815D10AE0FFF732FCFFF747FF78
:101B8000002CF1D0002814BF01240024ECE7FFF75B
:101B900027FCFFF73CFF002CE5D1041E18BF0124F1
:101BA000E2E7204610BD00BFF800001070B5514BB1
:101BB00086B093F83041282C0ED006D8042C34D0AF
:101BC000052C46D0012C73D10EE07E2C1FD0C12CE9
:101BD00013D02D2C6CD121E02046FFF701FCFFF73C
:101BE000BDFF0546292005E0D86905A902F066FE7B
:101BF00005462046FFF7F4FB79E02046FFF7F0FBAF
:101C0000FFF7D4FFD0F1010538BF00256FE0204673
:101C1000FFF7E6FBFFF7CAFFC54368E02046FFF782
:101C2000DFFBFFF7C3FF454261E0D86902A904AAC0
:101C3000FFF73BFA2046FFF7D3FB02A80021FFF78E
:101C4000A1FA20B1037A042B01D1C5684FE004202A
:101C500046E0D869694604AAFFF727FA2046FFF74D
:101C6000BFFB68460021FFF75CFA054618B10DF18D
:101C7000060600240DE0042037E0FFF76FFF26F88A
:101C8000020F95F9093001349C4202D02C20FFF755
:101C9000A7FB95F909309C42EFDB284602A9FFF724
:101CA0007DF905462920FFF79BFB05B32D681EE053
:101CB00004F17D03DBB26F2B0CD80F4BA4F1830230
:101CC00003EB021393F90820032A03D1DB6898473A
:101CD00005460CE02046FFF7B1F9054620B1082083
:101CE000FFF753F9002502E00120FFF74EF92846DF
:101CF00006B070BDF80000109C35010010B5FFF76C
:101D000055FF0446294B93F830015E2846D006D88B
:101D10002A280FD02F2813D0262845D138E0BC28F8
:101D200024D002D87C283FD12CE0BD2824D0BF2865
:101D30003AD10DE0FFF754FBFFF738FF4443E1E7EA
:101D4000FFF74EFBFFF732FF60B194FBF0F4D9E7E9
:101D5000FFF746FBFFF72AFF20B194FBF0F300FBEF
:101D60001344CFE70C20FFF710F9CBE7FFF738FB60
:101D7000FFF71CFF8440C5E7FFF732FBFFF716FFB4
:101D8000C440BFE7FFF72CFBFFF710FF0443B9E7A0
:101D9000FFF726FBFFF70AFF0440B3E7FFF720FB3E
:101DA000FFF704FF4440ADE7204610BDF8000010E7
:101DB00010B5FFF7A3FF04460A4B93F830012B2818
:101DC00002D02D280CD105E0FFF70AFBFFF796FFA4
:101DD0002418F1E7FFF704FBFFF790FF241AEBE765
:101DE000204610BDF800001008B5E720FFF7F8FA0C
:101DF000FFF7B4FE094B9A6C002A05DC1520FFF7AB
:101E0000C4F84FF6FF7008BD20B1013A9A644FF64E
:101E1000FE7008BD3F3233F8120008BDF800001014
:101E200070B5084CDC202568FFF7F2FAFFF796FE44
:101E300006462920FFF7D4FAA36A03B9266028468C
:101E400070BD00BFF800001010B5C720FFF7C8FA3A
:101E5000FFF784FE04462C20FFF7C2FAFFF77EFE50
:101E6000034B9B6A03B920604FF6FE7010BD00BFA4
:101E7000F800001010B5C620FFF7CAFAFFF76EFE93
:101E800004462920FFF7ACFA034B9B6A0BB9206884
:101E900010BD002010BD00BFF800001010B5B72025
:101EA000FFF7B6FAFFF75AFE04462920FFF798FA23
:101EB000204610BD70B50F4CB420A66BFFF7A8FAF2
:101EC000FFF74CFE05462920FFF78AFA6A1E42F208
:101ED0000F739A4203D91020FFF757F800E0A5636B
:101EE000E06B20B104F000F9024B0022DA633046C7
:101EF00070BD00BFF800001070B5B020FFF788FA81
:101F0000FFF72CFE06462C20FFF76AFAFFF726FEA5
:101F100005462C20FFF764FAFFF720FE044629202F
:101F2000FFF75EFA002E14BF2846204670BD38B574
:101F3000AE20FFF755FAFFF711FE0546E120FFF747
:101F40004FFAFFF7ADFA04469720FFF768FA10B191
:101F5000FFF7A6FA01E04FF6FE70002D18BF2046ED
:101F600038BD10B5A920FFF753FAFFF7F7FD044677
:101F70002920FFF735FA032C0DD80A4B9A6A52B97B
:101F80000A3403EBC4021279022A04D153F8343024
:101F900023B1986810BD4FF0FF3010BD4FF0FF30F7
:101FA00010BD00BFF800001010B5A020FFF730FAF8
:101FB000FFF7D4FD04462920FFF712FA032C12D8AC
:101FC0000C4B9A6A7AB90A3403EBC4021279022ADA
:101FD00009D153F834304BB19868DB68984234BF6C
:101FE0000020012010BD4FF0FF3010BD4FF0FF303A
:101FF00010BD00BFF8000010F8B59D20FFF708FAEB
:10200000FFF7ACFD06462920FFF7EAF9032E12D8A8
:102010000C4DAC6A7CB90A3605EBC6073B79012B3F
:1020200009D155F8360048B104F05EF845F836405D
:102030003C712046F8BD4FF0FF30F8BD4FF0FF3047
:10204000F8BD00BFF800001013B59120FFF7E0F9CC
:10205000FFF784FD04462920FFF7C2F9012301A8F8
:10206000ADF804308DF80640FFF7CEF81CBD38B54A
:102070008E20FFF7CDF9FFF771FD04462C20FFF706
:10208000AFF9FFF76BFD05462920FFF7A9F96B1E95
:10209000032B0BD82846FFF7B4F8D0B10023C218A1
:1020A00001339470240AAB42F9D138BD2B1D032BA8
:1020B0000BD86D422846FFF7A4F850B1013D4319F3
:1020C0009C70240A002DF9D138BD1020FEF75DFF69
:1020D000002038BD10B58420FFF79AF9FFF73EFDC8
:1020E00004462920FFF77CF984EAE470A0EBE47051
:1020F00010BD70B5F220FFF78BF9FFF72FFD0546F5
:102100002C20FFF76DF9FFF729FD04462920FFF782
:1021100067F9A8B2214609F0A3F9044B002808BFCB
:102120001846BDE87040FFF74DBA00BFB03201005D
:1021300010B59920FFF76CF9FFF710FD0446292030
:10214000FFF74EF9002CBCBF064BDC6A162C97BF7C
:10215000054B064803EB8404D4F80007BDE81040A3
:10216000FFF730BAF80000109C350100FC3C01007C
:1021700070B5F120FFF74CF9FFF7F0FC05462C2075
:10218000FFF72EF9FFF7EAFC06462920FFF728F9AA
:102190000C4B9C6A9CB9002E12DD3046FFF731F8DB
:1021A000044668B13146AAB2023009F0C3F90146CB
:1021B0002046FFF715F8002818BF044600E0002469
:1021C000204670BDF800001010B5DF2086B0FFF784
:1021D0001FF9FFF7C3FC04462920FFF701F9214648
:1021E00001A802F0EDF9FFF7EDF906B010BD2DE9F9
:1021F000F341DB20FFF70CF9FFF7B0FC07462C207A
:10220000FFF7EEF8FFF7AAFC06462C20FFF7E8F8E8
:10221000FFF7A4FC05462C20FFF7E2F8FFF79EFC31
:1022200004462C20FFF7DCF8FFF798FC80462920B5
:10223000FFF7D6F8074B9B6A43B9384631462A4622
:10224000E3B2CDF800800CF0C2FA00E00020BDE857
:10225000FC8100BFF80000102DE9F341D920FFF701
:10226000D7F8FFF77BFC80462C20FFF7B9F8FFF783
:1022700075FC07462C20FFF7B3F8FFF76FFC064606
:102280002C20FFF7ADF8FFF769FC05462920FFF782
:10229000A7F8164B9C6A002C23D1002F0CDA40467D
:1022A000794232462B4600940CF0E6FD204602B0FF
:1022B000BDE8F041FEF7A5BF3846FEF7A2FF044691
:1022C00080B1831C0093394632462B4640460CF0C1
:1022D000D3FD01462046FEF783FF002818BF0446C1
:1022E00000E00024204602B0BDE8F081F8000010B4
:1022F000F7B5D820FFF774F8FFF730FC07462C201D
:10230000FFF76EF8FFF72AFC06462C20FFF768F867
:10231000FFF724FC05462C20FFF762F8FFF71EFCB0
:1023200004462C20FFF75CF8FFF718FC31460090BC
:102330002A46384623460CF09DFD4FF6FE70FEBD42
:102340002DE9F041D420FFF763F8FFF707FC804642
:102350002C20FFF745F8FFF701FC07462C20FFF77C
:102360003FF8FFF7FBFB06462920FFF739F8144B2F
:102370009D6A002D1DD1002F1DDD3846FEF741FF5F
:102380000446C8B1A11C40463A4633460BF042FB16
:10239000011E07DA204603F0A7FE2846BDE8F041FB
:1023A000FEF72FBF2046FEF71BFF002818BF04468C
:1023B00002E0002400E02C462046BDE8F08100BF8A
:1023C000F800001010B5D320FFF722F8FFF7C6FB86
:1023D00004462920FFF704F82046BDE810400BF022
:1023E000C3BB10B5D220FFF713F8FFF7B7FB0446C5
:1023F0002920FEF7F5FF2046BDE810400BF0AEBBEC
:1024000010B5D020FFF704F8FFF7A8FB04462920F9
:10241000FEF7E6FF2046BDE810400BF085BB70B527
:10242000CF20FEF7F5FFFFF799FB05462C20FEF7BE
:10243000D7FFFFF793FB04462920FEF7D1FF28467C
:102440002146BDE870400BF09BBB10B5CE20FEF7D7
:10245000DFFFFFF783FB04462920FEF7C1FF012CB5
:1024600006DD02F054FB90FBF4F303FB140409E0D7
:1024700003D1BDE8104002F04ABB1CB1604202F03B
:1024800069FB0024204610BD2DE9F04302230360C0
:10249000464D023B436095F8306185B0F31E04461B
:1024A000032B7CD8DFE803F01E023F3FE869694652
:1024B00003AAFEF7FAFD0420FEF792FF684600210A
:1024C000FEF760FE054658B96846FEF70EFF054662
:1024D00018B3694602F075FA0023EB6004332B72DF
:1024E00004231DE0E869694603AAFEF7DEFD032028
:1024F000FEF776FF68460021FEF744FE054670B9F8
:102500006846FEF7F2FE054638B1694602F059FA10
:102510000023EB6003332B7201E0022040E0032331
:1025200023600C3539E0694603AAE869FEF7BDFD72
:1025300095F83001FEF754FF68460021FEF7F1FDE3
:10254000052E14BF03260426074618B30DF106090D
:102550004FF000080CE0FFF701FB29F8020F97F994
:10256000093008F10108984502D02C20FEF738FF09
:1025700097F909309845EEDBAB6A2BB9384602A9CA
:10258000FEF70CFD054600E000252920FEF728FF98
:1025900015B907E0042003E02660656002E0012031
:1025A000FEF7F3FC05B0BDE8F08300BFF8000010B3
:1025B000F0B5264C87B0C020FEF712FF236C2546ED
:1025C000002B3CD0E06903A905AAFEF76EFD01A827
:1025D000FFF75AFF019B042B01D0082030E0266C46
:1025E0001427013E774307F1900103A8611802F018
:1025F0004DFA20BB029BE7191968D7F8A0208A186A
:102600001A60D7F8A030002B06DA029B1A68D7F8B8
:102610009C309A4207DB0CE00BD0029B1A68D7F87B
:102620009C309A4205DD2B6C4FF6FE70013B2B640B
:102630000AE0142303FB0655B5F8980004E00B20CC
:10264000FEF7A3FC4FF6FF7007B0F0BDF8000010D6
:10265000F0B5434C89B0A320FEF7C2FEE06903A9A0
:1026600007AAFEF722FD05A8FFF70EFF059B042B26
:1026700001D008201AE03D20FEF7B2FEFFF76EFA07
:102680000746E420FEF7ACFEFFF768FA0546DE20B9
:10269000FEF7C5FE18B1FFF761FA064600E0012615
:1026A000069B1F60236C072B05DD0920FEF76DFCE0
:1026B0004FF6FF7451E0002E02DAAF4203DB36E042
:1026C00035D0AF4233DDE669FEF7A5FC636A2086AC
:1026D0001A18E2611B5C224D3BB30023AB62FEF78C
:1026E00035FE85F830010720FEF799FEC020FEF781
:1026F00096FE0028E8D095F83031043BDBB2012B80
:10270000E2D8E86901A907AAFEF7CFFC03A801A94E
:1027100002F0BCF90028D7D1FEF77DFCEE6104463B
:10272000FEF714FE85F8300117E00A20BEE71427F3
:102730005F4307F19000201803A902F042F9FEF769
:102740006AFC236CE71901332364A7F89800C7F8E3
:10275000A060C7F89C504FF6FE74204609B0F0BD4B
:10276000F800001070B5174E96F830412046FEF77D
:1027700037FEFFF7F3F905462C20FEF731FEFFF791
:10278000EDF9B36A0146CBB9C42C10D002D8BB2CEA
:1027900014D104E0C52C0ED0DD2C0FD103E0294666
:1027A00001F048FF0AE028460BF076FF06E02846D5
:1027B0000CF0F3F802E028460CF0A6F94FF6FE7094
:1027C00070BD00BFF800001070B50E4E96F8305185
:1027D0002846FEF71DFEFFF7C1F904462920FEF743
:1027E000FFFDB36A5BB9B22D04D12046BDE870404D
:1027F0000CF0C4B82046BDE870400CF0ADB92046DE
:1028000070BD00BFF800001010B5AD2086B0FEF717
:10281000FFFDFFF7A3F904462920FEF7E1FD21465D
:1028200001A801F037FFFEF7CDFE06B010BD70B570
:10283000A820FEF7EDFDFFF791F905462C20FEF7E5
:10284000EEFD08B1FFF78AF906462920FEF7C8FD1C
:10285000032D16D80E4CA36A9BB905F10A0304EBAD
:10286000C3021279022A0CD154F8330060B10EB1C0
:1028700006F061FC0A3554F8350006F090F9404244
:1028800070BD4FF0FF3070BD4FF0FF3070BD00BF26
:10289000F800001070B5A620FEF7BAFDFFF75EF94C
:1028A00006462C20FEF79CFDFFF758F904462C2025
:1028B000FEF796FDFFF752F905462920FEF790FD39
:1028C000032E1DD8002C1BDB104B9A6AC2B90A36A6
:1028D00003EBC6021279022A12D153F8360090B1E6
:1028E000012D02D18368E41803E0022D03D1C368EF
:1028F0001C1B24EAE474214606F080FA404270BDB5
:102900004FF0FF3070BD4FF0FF3070BDF800001089
:102910002DE9F341A520FEF77BFDFFF71FF90646E1
:102920002C20FEF75DFDFFF719F980462920FEF700
:1029300057FD032E30D81B4FBD6A6DBB06F10A034D
:1029400007EBC3021279022A28D157F8334034B377
:102950004046FEF756FC0446A0B920E006F10A0303
:1029600057F833000DF1070101226B4605F088FF8F
:1029700050B9009B43B19DF80730621901350A2B0D
:10298000937001D04545E9D320462946FEF728FC3F
:10299000002818BF044602E0002400E02C46204630
:1029A000BDE8FC81F8000010F7B5A420FEF730FD6B
:1029B000FFF7D4F807462C20FEF712FDFFF7CEF8FC
:1029C00005462920FEF70CFD032F21D8124EB46ACC
:1029D000F4B90A3706EBC7031B79022B19D156F855
:1029E0003740B4B12846FEF70CFC044688B1A11C60
:1029F00056F83700228801AB05F042FF0199A94241
:102A000007D82046FEF7ECFB002818BF044600E07C
:102A100000242046FEBD00BFF800001010B59F2026
:102A200086B0FEF7F5FCFFF799F804462920FEF77B
:102A3000D7FC032C16D80E4B9A6A9AB90A3403EBCA
:102A4000C4021279012A0DD153F8340050B16946FD
:102A500006F0B3FA30B99DF809301BB16846FEF7AD
:102A6000D6FD10B90020FEF7CCFB06B010BD00BFAC
:102A7000F80000102DE9F0419B20FEF7C9FCFFF79C
:102A80006DF806462920FEF7ABFC032E18D80F4D33
:102A9000AF6AAFB90A3605EBC60898F80430022BC6
:102AA0000ED155F8360058B106F0CBF8444255F82F
:102AB000360003F019FB45F8367088F8047001E021
:102AC0004FF0FF342046BDE8F08100BFF800001051
:102AD00038B59A20FEF79CFCFFF740F80546292000
:102AE000FEF77EFC064C45B1B4F84C00FEF724FE20
:102AF0004FF0FF33A4F84C3038BDE06AE56238BDD2
:102B0000F800001038B50F4D95F830412046FEF71B
:102B100067FCFFF723F8AB6A014683B98F2C02D01C
:102B2000EB2C0CD106E010B101F012FD07E001F032
:102B30000BFD04E04FF47A7064220BF042FF4FF675
:102B4000FE7038BDF8000010F8B5174F97F8304107
:102B50002046FEF745FCFFF701F806462C20FEF75D
:102B60003FFCFEF7FBFF05462C20FEF739FCFEF785
:102B7000F5FFBB6A0246A3B9C92C04D0E52C07D0E7
:102B8000892C0ED109E0304629460BF04FFF08E0B2
:102B9000304629460BF015FF03E0304629460CF07D
:102BA00053F94FF6FE70F8BDF8000010F7B5872016
:102BB000FEF716FCFEF7D2FF07462C20FEF710FCAE
:102BC000FEF7CCFF06462C20FEF70AFCFEF7C6FFF8
:102BD00005462C20FEF704FCFEF7C0FF04462C201F
:102BE000FEF7FEFBFEF7BAFF314600902A46384654
:102BF00023460CF0D7F84FF6FE70FEBD38B58620A0
:102C0000FEF706FCFEF7AAFF05462920FEF7E8FBC3
:102C10000C4B9C6A94B9002D11DD6800FEF7F1FAA7
:102C2000044660B1294602300BF0C4FF4100204643
:102C3000FEF7D6FA002818BF044600E0002420461C
:102C400038BD00BFF800001037B5EA20FEF7E0FB02
:102C5000FEF7B1FD04462920FEF7C2FB54B1A51CC6
:102C6000284601A901F02AFE019B20465D1B03F0C6
:102C70003BFA00E0254628463EBD38B5E920FEF780
:102C8000C7FBFEF798FD04462920FEF7A9FB44B1D7
:102C9000A01C002101F012FE0546204603F024FA94
:102CA00000E02546284638BD38B5CD20FEF7B0FBFC
:102CB000FEF781FD04462C20FEF792FBFEF74EFF47
:102CC00005462920FEF78CFB5CB122882046511B6B
:102CD00021EAE171FEF7CDFA0546204603F004FA39
:102CE00000E02546284638BD70B5BE20FEF790FBB3
:102CF000FEF761FD04462C20FEF772FBFEF72EFF67
:102D000006462C20FEF78BFB18B1FEF727FF054681
:102D100001E04FF0FF352920FEF762FB6CB1B5F101
:102D2000FF3F08BF258820462A46711EFEF7A1FAFC
:102D30000546204603F0D8F900E02546284670BD38
:102D400038B5B920FEF764FBFEF735FD04462920AF
:102D5000FEF746FB24B12046258803F0C5F900E0C4
:102D60002546284638BD38B5B820FEF751FBFEF79A
:102D700022FD04462C20FEF733FBFEF7EFFE05464E
:102D80002920FEF72DFB4CB12A4620460021FEF7F4
:102D900070FA0546204603F0A7F900E025462846CC
:102DA00038BDF8B5B620FEF733FBFEF704FD054647
:102DB0002C20FEF715FBFEF7FEFC04462C20FEF748
:102DC0000FFBFEF7CBFE06462920FEF709FBE5B117
:102DD00014B322882988013E26EAE676891A0CE097
:102DE000AF19FF18E018BF788078874202D101330D
:102DF0009342F5DB934206D001368E4201DC00237C
:102E0000F6E74FF0FF36013607E02E4614B12046B4
:102E100003F06AF93046F8BD2646284603F064F907
:102E2000F4E770B5AF20FEF7F3FAFEF797FE06461B
:102E30002C20FEF7D5FAFEF7BEFC05462C20FEF747
:102E4000CFFAFEF7B8FC04462920FEF7C9FA2DB1E7
:102E500004B126B9284603F047F904E01CB1204626
:102E600003F042F92C46204670BD38B59020FEF79D
:102E7000CFFAFEF7A0FC05462C20FEF7B1FAFEF7CC
:102E80006DFE04462920FEF7ABFA15B3002C2B8803
:102E90000CDD9C42B8BF2346002404E0013BEA1845
:102EA00092782402A418002BF8D10EE064429C42D0
:102EB000B4BF22461A4600231C4604E0E91889786C
:102EC0002402641801339342F8DB284603F00CF91E
:102ED00000E02C46204638BD38B58D20FEF798FA24
:102EE000FEF769FC05462C20FEF799FA18B1FEF7AB
:102EF00035FE441E00E004462920FEF771FA6DB14C
:102F0000002C05DB2B889C4202DA2C19A47801E006
:102F10004FF0FF34284603F0E7F801E04FF0FF34AC
:102F2000204638BDF8B5F020FEF772FAFEF716FE1F
:102F300005462C20FEF754FAFEF710FE06462C201C
:102F4000FEF74EFAFEF737FC04462920FEF748FA52
:102F500094B1ADB2A01C21882A4608F0BDFA002E1B
:102F6000074605DA002001462A4608F0B5FA07466A
:102F7000204603F0B9F801E04FF0FF373846F8BDBE
:102F80002DE9F743EF20FEF743FAFEF714FC8046E5
:102F90002C20FEF725FAFEF70EFC05462C20FEF746
:102FA0001FFAFEF708FC06462C20FEF719FAFEF77A
:102FB00002FC07462C20FEF713FAFEF7FCFB044642
:102FC0002920FEF70DFAB8F1000F13D0002D26D0FE
:102FD000002E24D0002F22D00CB3A31C00932388F2
:102FE00008F102000193A91CB21CBB1C0AF0A4FB4F
:102FF000814616E04FF0FF3915B1284603F074F80A
:1030000016B1304603F070F817B1384603F06CF88B
:1030100014B1204603F068F84846BDE8FE834FF03F
:10302000FF39404603F060F8E6E72DE9F041EE2075
:10303000FEF7EEF9FEF7BFFB05462C20FEF7D0F9B0
:10304000FEF7B9FB06462920FEF7CAF995B18EB105
:1030500005F10208B71C39460022404608F090FAF4
:10306000FEF7CFF8044650B140463946A21C08F09E
:1030700087FA04E00220FDF788FF25B100242846E6
:1030800003F032F800E02C4616B1304603F02CF87D
:103090002046BDE8F08170B5ED20FEF7B9F9FEF7E6
:1030A0008AFB05462920FEF79BF985B1AE1C00215D
:1030B000304608F0BEFAFEF7A4F8044618B13046D0
:1030C000A11C08F0B6FA284603F00EF803E002202F
:1030D000FDF75BFF2C46204670BD70B5E820FEF77B
:1030E00097F9FEF768FB04462C20FEF798F908B123
:1030F000FEF734FD06462920FEF772F904B3208856
:10310000FEF77FF80546B8B19EB1002606E0A31988
:10311000987801F018FCAB199870013623889E420C
:10312000F5DB09E0A319987801F007FCAB1998705A
:10313000013623889E42F5DB204602F0D5FF00E0F1
:103140002546284670BD38B5E620FEF761F9FEF742
:1031500032FB04462C20FEF762F908B1FEF7FEFCB4
:1031600005462920FEF73CF924B37DB1002505E092
:103170006319987801F085FB18B1013523889D42C9
:10318000F6DB228820462946521B0CE0258805E004
:103190006319587801F075FB10B1013D002DF7D18E
:1031A000204600212A46FEF764F80546204602F034
:1031B0009BFF00E02546284638BD38B5E320FEF7E2
:1031C00027F9FEF7F8FA04462920FEF709F93CB181
:1031D000A01C0AF0F5FF0546204602F085FF00E03E
:1031E0002546284638BD2DE9F041E020FEF710F9CC
:1031F000FEF7B4FC07462C20FEF7F2F8FEF7DBFAE8
:1032000004462920FEF7ECF8002C29D0002F01DD20
:10321000208838B9204602F067FF0020BDE8F04161
:10322000FDF7EFBF7843FDF7ECFF0546A0B123881B
:10323000012B05D10230A1783A4601F098FB0BE052
:103240000026214631F8022BA81C02FB060001369D
:1032500001F095FBBE42F4DB204602F045FF00E0A2
:1032600025462846BDE8F08138B5DA20FEF7D0F8CB
:10327000FEF774FC05462C20FEF7B2F8FEF79BFA29
:1032800004462920FEF7ACF864B1094B9B6A5BB990
:103290002846A11C22880BF016FE0546204602F0A7
:1032A00023FF02E0254600E00025284638BD00BF88
:1032B000F80000102DE9F04FD72089B0FEF7A8F8EC
:1032C000FEF74CFC82462C20FEF78AF8FEF746FCFF
:1032D00083462C20FEF784F8FEF740FC06902C2055
:1032E000FEF77EF8FEF73AFC07902C20FEF778F800
:1032F000FEF734FC81462C20FEF772F8FEF72EFC18
:1033000007462C20FEF76CF8FEF755FA05462920F3
:10331000FEF766F8002D2FD01A4B9E6A26B128467C
:1033200002F0E2FE002428E03846FDF76AFF04467A
:10333000F0B100F1020831463A46404601F017FB71
:103340002B46CDF8009033F8022B504601920293A1
:103350005946069A079B0397CDF810800BF0C1FAE7
:1033600030B1204602F0C0FE3046FDF74AFF044669
:10337000284602F0B9FE00E02C46204609B0BDE820
:10338000F08F00BFF800001070B5D620FEF740F8AF
:10339000FEF7E4FB06462C20FEF722F8FEF7DEFBE4
:1033A00005462C20FEF71CF8FEF705FA04462920F6
:1033B000FEF716F86CB1094B9B6A63B92B46304691
:1033C000A11C22880BF0BCF90546204602F08CFEB9
:1033D00002E0254600E00025284670BDF8000010F8
:1033E00038B5D520FEF714F8FEF7B8FB05462C20BB
:1033F000FDF7F6FFFEF7DFF904462920FDF7F0FFA1
:103400004CB12846A11C22880AF05CFB05462046E8
:1034100002F06AFE01E04FF0FF35284638BD70B576
:10342000D120FDF7F5FFFEF7C6F904462C20FDF785
:10343000D7FFFEF793FB06462C20FDF7D1FFFEF7E2
:103440008DFB05462920FDF7CBFF4CB12A46A01C79
:10345000B1B20AF0C7FB0546204602F045FE01E086
:103460004FF0FF35284670BD30B5C82087B0FDF756
:10347000D6FF184B93F83001FDF7E0FD88B1FEF759
:103480009AF90446A8B1002504E06319987801F080
:1034900029F8013523889D42F7DB204602F024FEFF
:1034A00007E0FEF75BFB014601A801F089F801F097
:1034B00041F82C20FDF7B3FF0028DAD13B30FDF7AF
:1034C000AEFF10B90A3001F00DF84FF6FE7007B0EC
:1034D00030BD00BFF800001037B5BA20FDF79FFFE0
:1034E0006846FEF7D1FF3D20FDF77AFF009B032BD6
:1034F00006D0042B13D1019CFEF730FB20600EE0B8
:10350000019B1C68FEF757F9019D034610B9FDF7B2
:1035100078FE03462B6014B1204602F0E5FD4FF61D
:10352000FE703EBD2DE9FF410646FDF70FFF914DB0
:1035300085F830010720FDF772FF95F830012C4621
:10354000B5280FD003D83F2840F0DC8005E0BE2826
:103550007CD0CA2840F0D68073E0FDF741FFFFF72A
:1035600083FFE3E0002E68D1EE6B46B9A86B013013
:1035700001F0FEFDE86308B902305FE06E6300F021
:10358000BFFF0D28054601D00A280FD1E26B636BFF
:103590000026D6540A2000F0A5FFB520FDF720FF35
:1035A00002A8FEF771FFE06B30BB23E0082801D0D2
:1035B0007F280BD1636B6F4D002B40F3E1806E4889
:1035C00000F0B8FF6B6B013B6B63D9E0626BA36BE0
:1035D000684E9A4280F2D48001F047F9002800F04A
:1035E000CF80736BF26B2846D5540133736300F0C0
:1035F00079FFC5E0102018E0029B032B07D0042BB5
:1036000015D13146039D01F059F928600FE0039B65
:10361000186808B102F068FDE06B039DFDF7D2FF6A
:103620002860039B1B6813B90220FDF7AEFCE06B1A
:1036300002F05AFD0023E36388E00120FDF7A5FCBA
:1036400001E0FDF7CDFE4FF6FE758EE0FDF7E0FEE2
:103650006846FEF719FF2C20FDF7C2FEFEF77EFA42
:1036600080462C20FDF7DBFE18B1FEF777FA0746FF
:1036700001E04FF0FF372920FDF7B2FE3D20FDF7B6
:10368000AFFEFEF798F8064608B9022051E0009B0D
:10369000032B30D1019D286840B9FDF7B2FD2860A9
:1036A000019B1B6813B90220FDF76FFC019B1D688D
:1036B00025B3002F08F1FF38338801DB9F4200DD7E
:1036C0001F462B8828EAE8789845A8BF984607EB5C
:1036D0000801994204DD2846FDF782FD054640B108
:1036E000A81C4044B11C3A4601F049F9019B1D60F9
:1036F00004E0022000E00820FDF747FC304602F01D
:10370000F3FC23E000F17D03DBB26F2B14D81B4ADE
:10371000833802EB001393F90830012B02D0022BFF
:1037200006D12EB902EB0010C368984705460FE09A
:103730000120FDF72AFC09E0C31EDBB2012B03D9EF
:10374000062801D0052801D1FFF7C6FE4FF6FE7509
:1037500094F830314BB1074BD86901F0E1F80378A8
:103760000A2B02D00120FDF710FC284604B0BDE86A
:10377000F08100BFF8000010AD3201009C3501005F
:10378000258EF2E737B5AA20FDF742FEFEF7E6F9EF
:1037900005462C20FDF724FEFEF70DF804462920EF
:1037A000FDF71EFE2CB90220FDF7EFFB4FF0FF35B1
:1037B00014E0032D14D80D4B9A6A8AB90A3503EB2D
:1037C000C5021279022A0BD153F8350040B1A11C71
:1037D000228801AB05F010F9454203E028463EBDC2
:1037E0004FF0FF35204602F07FFCF7E7F8000010AD
:1037F00030B5A72087B0FDF70BFEFDF7DCFF0446D0
:103800002920FDF7EDFD84B1A01C694605F0FFFB02
:103810000546204602F068FC1DB96846FDF7F7FE34
:1038200007E00020FDF7EDFC03E00220FDF7ADFB13
:10383000204607B030BD2DE9F84FA220FDF7E8FD86
:10384000FDF7B9FF05462C20FDF7CAFDFDF7B3FFD4
:1038500006462920FDF7C4FD05B12EB90220FDF76B
:1038600094FB002D61D05AE0354A936A9246002BB2
:1038700055D1B71C9B461CE001F05FF84F2816D0CD
:1038800004DC412810D0432813D10AE0522802D08A
:1038900057280ED102E04BF0010B0AE04BF0020B6F
:1038A00007E04BF0040B04E04BF0080B01E04BF099
:1038B000100B17F8010B0028DED1214B0446D3F87A
:1038C0005080B8F1000F12D14FF4097001F050FC94
:1038D00028B304F10A0702234AF83700042C0AEB44
:1038E000C70ADFF85C908AF8043005D117E001348C
:1038F0000833042CE3D112E05FFA8BF2A91C04F028
:103900001FFFC0F1000BBBF1000F17D059F83700B3
:1039100002F0EAFB49F837808AF8048001E04FF0B2
:10392000FF3B284602F0E0FB01E04FF0FF3B16B101
:10393000304602F0D9FB5846BDE8F88FA346F0E7C1
:10394000F800001038B5A120FDF762FDFDF733FF48
:1039500004462920FDF744FD3CB1A01C05F099FC6C
:103960004542204602F0C0FB04E00220FDF70DFBBB
:103970004FF0FF35284638BD2DE9F0479E20FDF772
:1039800047FDFDF718FF06462920FDF729FD2EB952
:103990000220FDF7FAFA4FF0FF3A2DE01C4B9C6A2B
:1039A000984664BB1F6D8FB91C2001F0E1FB30B35A
:1039B00004F10A05012348F83500042C08EBC5087A
:1039C000DFF84C9088F8043005D118E00134083352
:1039D000042CE7D113E0B11C05F0BEFAC0F1000AD7
:1039E000BAF1000F0ED059F8350002F07DFB49F80E
:1039F000357088F8047006E05046BDE8F0874FF057
:103A0000FF3A00E0A246304602F06EFBF4E700BF4A
:103A1000F800001038B59C20FDF7FAFCFDF7CBFE4E
:103A200004462920FDF7DCFC3CB1A01C05F0CFFBCF
:103A30004542204602F058FB04E00220FDF7A5FABB
:103A40004FF0FF35284638BD2DE9F04F944C9520B6
:103A50008BB0FDF7C5FC94F830312546053B012BB2
:103A600000F2EE8004A909AAE069FDF71EFB94F8B4
:103A70003001FDF7B5FCFEF771F801902C20FDF741
:103A8000CEFC50B1FEF76AF802902C20FDF7C7FC7F
:103A900028B1FEF763F8062022E1012600E00226A5
:103AA00029200DF11607FDF79BFC69463A460023D5
:103AB00051F8040FB0F5FA4F01D9052010E1013398
:103AC000B34222F8020FF3DB04A80021FDF729FB23
:103AD0000446002840D104A808A9714CD5F81080EC
:103AE000FDF71FFB002840F0A6802069FDF78FFA44
:103AF00008F1010881464046FDF789FA81450346F1
:103B00000AD01421E068594302F041FD18B902308F
:103B1000FDF73BFA8FE0E060089AEC68142303FBA2
:103B200002442969E0188A1A5A43214600F027FF07
:103B300004A9204600F045FF00232361637204A816
:103B4000242100F07AFF00280CBF042003202072FB
:103B5000C5F81080002C6ED094F9093023B12046AE
:103B6000FDF704FA804600E098464FF00109002373
:103B700037F9022F0133B34202FB09F9F8DB237A4C
:103B80004F46032B22D0042B12D120694FEA890122
:103B900002F0FDFC00284ED020614FEA880305E0CA
:103BA00022690021D15008F101080433C845F7DB30
:103BB000BDF8183066726381BDF81A303D20A381CC
:103BC000FDF72DFC002800F08D803BE0236993B1C8
:103BD0004FEA890A0DE0D4F810B05BF80A0020B172
:103BE00002F082FA00234BF80A3009F101090AF1C8
:103BF000040AC145EFDB2069B90002F0C8FC08B92E
:103C0000054616E020614FEA880305E0226900219D
:103C1000D15008F101080433B845F7DBC8E726693D
:103C200056F8250020B102F05FFA002346F825304F
:103C300001354545F3DB0220FDF7A7F902204FE0EF
:103C400001204DE02046FDF791F9237A0746032B2A
:103C50001BD0042B3FD12669FDF780FF3060012681
:103C60000CE0FDF7BDFBD4F81080FDF777FF0C4B9F
:103C700048F826009B6A002B2DD1013695F83001BB
:103C80002C2828D1BE42ECDB25E02369186808B156
:103C900002F02AFA2669FDF78EFD3060012614E055
:103CA000F8000010FDF79CFB23694FEA860853F8E3
:103CB000260008B102F018FAD4F81090FDF77BFD49
:103CC000AB6A49F8080033B9013695F830012C2861
:103CD00001D1BE42E6DB95F830312C2B02D1072012
:103CE000FDF753F94FF6FE700BB0BDE8F08F37B516
:103CF0009420FDF78DFBFDF75EFD04462920FDF7BE
:103D00006FFB8CB1A01C01A9FCF784FC0546204682
:103D100002F0EAF925B128460199FDF79BFA04E083
:103D20002846FDF76EFA00E020463EBD38B58A20F1
:103D3000FDF76EFBFDF73FFD04462920FDF750FB24
:103D40004CB12188A01C49080AF05CFF05462046BA
:103D500002F0CAF900E02546284638BD38B52B4C9C
:103D60000020626A238EA062D3182362E361FFF70A
:103D7000D9FBA26A03460AB3B4F84E30208E4FF640
:103D8000FF718B42A4F84C00E26201D0022A10D1EC
:103D9000FDF7D2FCA36A0546162B97BF1C4A1D48A7
:103DA00002EB8303D3F8000700F0C4FB1A4829464E
:103DB0001CE04FF0FF32A4F84E2003E04FF6FF72F4
:103DC00090421FD04FF6FE72934206D1FDF723F9C1
:103DD000636A20861B5C6BB916E04FF6FD72934256
:103DE00007D1208EFDF7A8FC01460C4800F0F8FC36
:103DF00008E02386208E4FF6FF73C11A484240EB3D
:103E0000010038BD012038BD012038BDF800001088
:103E10009C350100013D01000F3D0100183D0100EE
:103E20002DE9F041574D002386B068626B61AB61AC
:103E300049E00A2C08BF013000F072FD044600780A
:103E400000F007FD002838D0204603A905AAFDF799
:103E50002CF9059B072B30DC06AAD31813F80D3C70
:103E60003A2B2AD1A869474F461CFDF7D0F8804667
:103E70003046FDF7CCF88045034606D00A21786924
:103E8000594302F084FB38B178616B69AE610A2254
:103E9000013E02FB063646B93B4800F04BFB686921
:103EA00000286AD002F020F967E0304603A900F04C
:103EB00088FD344B5B6AE31A3381204614F8013BDA
:103EC0000BB10A2BF9D10478002CB2D127462FE090
:103ED0000137059725E0D8F814100A26081906FBC3
:103EE000031100F0D3FD002818DDD8F81410324675
:103EF0000919684600F05AFDD8F8143005991819C8
:103F000006FB0131324600F051FDD8F81430059817
:103F1000694606FB0030324600F048FD059B013340
:103F20000593059BAA69DFF85C809342D3DB0A34D2
:103F3000AA69144B9742CBDB502200209A634FF0C2
:103F4000FF32986058601860D8601861D863586470
:103F500098641864D862A3F84C20A3F84E20188601
:103F6000186583F85400986583F85C00186683F838
:103F70006400986683F86C0001E04FF0FF3006B0F3
:103F8000BDE8F081F80000102E3D0100014B1868DB
:103F9000704700BFF80000102DE9F047324C04F1E3
:103FA00020062546206D60B194F85430022B01D1D3
:103FB00004F047FE206D02F097F80023236584F893
:103FC00054300834B442EDD109F0A0FD00240AE0D9
:103FD0005B6803EB04131A7A032A03D1D86808B18B
:103FE00002F082F80134AA681F4B9442F0DB586853
:103FF00008B102F079F80026B04621E0DC68A41987
:10400000237A032B15D1D4F81090B9F1000F14D0F6
:104010002046FCF7ABFF0027824606E0236953F8F1
:10402000270008B102F060F801375745F6DB484633
:1040300001E0206908B102F057F808F101081436D0
:104040002A69094B9045D9DBD86B08B102F04CF8CE
:10405000E86808B102F048F8686918B1BDE8F047AF
:1040600002F042B8BDE8F087F800001008B5FFF78D
:10407000D7FEB0F1FF3F0BD0FFF770FE0028FBD05A
:10408000FFF78AFF034B986A003818BF012008BD6C
:10409000012008BDF80000100B78FF2B0ABF034B6E
:1040A0000160036000234360704700BF2E020010D0
:1040B000426810B55AB9026813780BB10132026038
:1040C000A3F183026F2A02D8002243608260416814
:1040D00083396F290FD88268084C09018B18611841
:1040E00091F9071001328A42E35C826001D0CA4232
:1040F00001D100224260184610BD00BF9C3501006E
:1041000000230360436070472DE9F74F0446019197
:1041100015469B464EE02B6820789BB10C99D847FA
:1041200014F8013B222B08D12078222803D10C99C6
:104130000134D8473EE0002302E00A3B18BF0123C8
:104140002B6037E02228804602D101262E6029E02C
:104150006B6833BB99464FF06F0A09EB0A071949A0
:104160007F1001EB071191F90760204686EAE6729D
:10417000A2EBE67200F0A0FC002802DA07F1FF3A99
:104180000DE006D1002E07DA7642A05D00F04FFB6D
:1041900010B107F1010902E007F1830802E0D145FF
:1041A000DBDD012640460C99D847404600F03FFB36
:1041B000A4196860019A13689C42ACD31460BDE8EE
:1041C000FE8F00BF9C3501002DE9F04F96208DB089
:1041D000FDF706F9FDF7EFFA064608B9023074E07C
:1041E0003D4CA56A002D2FD12846FDF70AF8049012
:1041F00020B9304601F078FF022066E007A8069556
:104200000595FFF77DFF33880CA9F318023341F8B9
:10421000043D07AA314B04AFB01C0097FFF774FFB1
:10422000304601F061FF28463946FDF744F8069D07
:104230000DB1022005E004980599FCF7D1FF30B9D3
:104240000230FCF7A2FE049801F04EFF3FE0238EFF
:10425000049002304FF0FF32D4F81C80D4F8209044
:10426000676A2062E06160620120B4F84CB0B4F883
:104270004EA0A4F84C20A4F84E200393A5622586F6
:10428000FFF750F9049801F02FFFA66A039B022E56
:1042900018BFA5622386A4F84CB0A4F84EA0C4F8B9
:1042A0002090C4F81C806762FDF750F884F8300154
:1042B0002C20FDF795F809A8FEF7E6F8099B042BDA
:1042C00002D10A9B1E6002E00820FCF75EFE4FF65A
:1042D000FE700DB0BDE8F08FF8000010B7120000BE
:1042E0002DE9F0438BB0129E98460023139F0D4694
:1042F000137014463370032800F2C580DFE800F025
:1043000002385587032900F2BE80DFE801F0020A77
:104310001A2310465E494246FCF7AEFE5D4B188EEE
:104320003EE010465C494246FCF7A6FE594BDB6A6C
:104330005A1E152A1AD8594A02EB8303D3F80017DC
:1043400060E0104656494246FCF796FE514BB3F8E2
:104350004C0007E0104653494246FCF78DFE4D4B9A
:10436000B3F84E004FF6FF73984219D14E4949E019
:10437000DFF82091D9F84430994280F284801046C9
:104380004A494246FCF778FE691C684600F018F975
:104390003835014642462046FCF76EFE39F81500D6
:1043A000FDF7CAF90146684629E03A4B9A689142FE
:1043B00069DA5B68204603EB011529464246FCF7A3
:1043C0005BFE2B7A032B02D0042B5AD115E0E9684F
:1043D00001B10988684600F0F3F83A4601463046D4
:1043E000FCF74AFE324930463A46FCF745FEE9689A
:1043F00009B1023106E02F4904E0E968684600F09F
:10440000DFF8014630463A46FCF736FE39E0214BEC
:104410001A69914237DADB68142202FB0135204623
:1044200029464246FCF728FE204623494246FCF72F
:1044300023FE2B7A032B02D0042B05D107E01F4962
:1044400030463A46FCF718FEA846002415E03046F0
:104450001B49F6E724B130461A493A46FCF70CFEF0
:10446000B8F90A10684600F0ABF83A460146304603
:10447000FCF702FE013408F1020895F909309C426C
:10448000E8DB012000E000200BB0BDE8F08300BFB6
:10449000423D0100F80000104D3D01009C35010037
:1044A000563D0100613D0100FC3C01006A3D0100F8
:1044B000723D01003D3D0100843D0100863D01004B
:1044C000923D01003035010007B5054B01461878D3
:1044D00000230093082201330BF015F80EBD00BF36
:1044E0007408001010B5044608F052FA034B214638
:1044F0001878BDE810400AF0DEBF00BF7408001055
:1045000008B5084B18780AF0ECFF002808DA08F024
:104510006FFA002804DA0120FCF7B2F94FF0FF30FF
:1045200008BD00BF7408001008B5FFF7E9FF0028B8
:10453000FBDB08BD10B5044601E0FFF7D3FF14F81C
:10454000010B0028F9D110BD0048F3E71E3F010020
:104550000048EFE7233F01000048EBE7283F010058
:104560000048E7E7303F0100F8B504464F1E00253C
:10457000FFF7C6FFA0F120035E2B064606D8BD421A
:104580000FDAFFF7AFFF66550135F1E77F2801D05D
:10459000082806D1002D04DD0748FFF7CBFF013DB9
:1045A000E6E70D2E01D00A2EE2D10448FFF7C2FF44
:1045B000002363552846F8BDAD3201007734010071
:1045C000002310B5CC0FC37418BF494200F1120389
:1045D00018460A2391FBF3F203FB121330330370E6
:1045E000431E111EF4DC14B118462D23037010BDB8
:1045F0007FB5014601A8FFF7E3FFFFF79BFF07B078
:1046000000BD70B5044608480D46FFF793FF2046ED
:10461000FFF790FF0548FFF78DFF2846FFF7E8FFFB
:104620000348BDE8704085E7343F0100423F010088
:10463000DB48010070B50D4604460848FFF77AFFD5
:104640002846FFF7D5FF3B20FFF74CFF2046FFF73A
:10465000CFFF4820BDE8704044E700BF4C3F010059
:10466000002330B5CD0FC37418BF494200F11203C7
:1046700018460A2391FBF3F403FB1413013A303379
:104680000370431E002A2146F2DC15B118462D2383
:10469000037030BD002310B5C37400F11203054C44
:1046A00001F00F02A25C0909184603F80129F6D1AE
:1046B00010BD00BF0E3F010070B50023054610F885
:1046C000012BA2F13004E6B2092E02D804EB031349
:1046D000F4E7A2F14104E4B2052C01D8373A05E031
:1046E000A2F16104E4B2052C03D8573A02EB03139C
:1046F000E4E701B10D60184670BD70B50E4686B096
:10470000054602E020780AF0D6FE15F8011B0D4C94
:1047100049B13D29F6D10CE020780AF0CCFE15F81D
:10472000011B0029F8D120780A210AF0C4FE06B046
:1047300070BD20780AF0BFFE01A83146FFF740FFA8
:104740000546ECE77408001070B50E4686B00546C5
:1047500002E020780AF0AFFE15F8011B0D4C49B1BC
:104760003D29F6D10CE020780AF0A5FE15F8011BD2
:104770000029F8D120780A210AF09DFE06B070BD0C
:1047800020780AF098FE01A83146FFF783FF05461E
:10479000ECE700BF740800102DE9F0410C46164606
:1047A000074602E028780AF086FE17F8011B0B4D39
:1047B0000029F7D124B90AE028780AF07CFE013EEE
:1047C00014F8011B19B10A2901D0002EF4DC287855
:1047D0000A21BDE8F0410AF06EBE00BF7408001067
:1047E00010B50C46FFF7A6FE2046FFF701FF0A2092
:1047F000BDE8104076E610B50C4686B0FFF79AFE8D
:10480000214601A8FFF746FFFFF794FE0A20FFF7B5
:1048100069FE06B010BD10B5034602E003F8014B77
:10482000013A11F8014B0CB1002AF7D110BDA0F1EB
:104830006103192B09D9A0F14103192B07D930388D
:1048400009288CBF002001207047012070470120FB
:104850007047A0F16103192B05D9413819288CBF85
:104860000020012070470120704720385E288CBF4F
:10487000002001207047303809288CBF002001201B
:10488000704720280BD0092809D00D2807D00A2806
:1048900007D0A0F10C03584240EB03007047012001
:1048A00070470120704738B50446254614F8010BBF
:1048B000FFF7E7FF0028F8D1284638BDF8B50E46C7
:1048C000FFF7F1FF04780546A4F12D02544244EBB2
:1048D000020404B1451C2F783846FFF7CCFFD0B155
:1048E000302F04D16B78782B04D0582B02D02B4674
:1048F000002004E0A81C3146FFF7DEFE0DE01D4657
:1049000013F8012B303AD1B2092904D802EBC002C6
:1049100002EB4000F3E706B1356004B14042F8BD58
:1049200070B50446264614F8015B2846FFF7A9FF38
:1049300008B10A2DF6D1304670BDA0F16103192BE4
:1049400098BF20387047A0F14103192B98BF203041
:10495000704730B50346002405E01D5D085D013A4F
:104960000134281A02D1002AF7D1104630BD03467F
:1049700002E003F8011B013A002AFAD1704788428D
:1049800010B503460FD98918831804E011F8014DBA
:10499000013A03F8014D002AF8D110BD11F8014B7E
:1049A000013A03F8014B002AF8D110BD10B50346B7
:1049B00004E011F8014B013A03F8014B002AF8D149
:1049C00010BD03460A7803F8012B11F8012B002AC9
:1049D000F8D1704710B5034602E003F8014B013AE5
:1049E00052B111F8014B002CF7D103E0002103F87C
:1049F000011B013A002AF9D110BD10B50346044647
:104A0000184613F8012B002AFAD1FFF7DAFF2046E7
:104A100010BD38B504460346184613F8015B002D57
:104A2000FAD1FFF7D7FF204638BD03461A4613F8E0
:104A3000011B0029FAD1101A704701E08A4205D003
:104A4000027803460130002AF8D113461846704711
:104A500010B50346024610F8014B002CFAD103E0D2
:104A600012F801498C4203D09A421046F8D2002035
:104A700010BD034602E00131101A06D113F8012BD4
:104A80000878002AF7D10028F5D1704770B50446A0
:104A90000D4608E0FFF751FF064615F8010BFFF73A
:104AA0004CFF301A07D114F8010B0028F2D12E78F0
:104AB000002EEFD1304670BDF8B5144605460E46BF
:104AC00009E0FFF73AFF074616F8010BFFF735FF3D
:104AD000381A0AD1013C15F8010B08B937781FB113
:104AE000002CEED12046F8BD3846F8BD10B503467F
:104AF00004E011F8010B201A08D1013A13F8014B18
:104B00000CB9087810B1002AF3D1104610BD104A34
:104B100045F21541138842F298304B43B2F9021026
:104B200010B5414301F55A51513144F6E34091FB30
:104B3000F0F400FB141103F570530D335B045B0CB0
:104B400089B2138081EA0303518018B210BD00BFFF
:104B500030020010C30B044A5B0440045B0C400CA1
:104B6000138043405380704730020010084B094ABD
:104B70001988118059885180074A99881180D988ED
:104B80005180064A19895B8911805380704700BFA4
:104B900004000010F80F0010F40F0010BC0F0010FC
:104BA00010B507F053FF07F0F3F908F0F5FDBDE885
:104BB000104009F03FB837B50C4601A9FFF77EFE5B
:104BC000019B05461A782E2A01D1013301930198E1
:104BD00001A9FFF773FE019B1A782E2A01D1013338
:104BE000019340EA0525ADB22B0A43EA052525804D
:104BF000019801A9FFF762FE019B05461A782E2A4B
:104C000001D101330193019801A9FFF757FE40EA52
:104C10000525ADB22B0A43EA052565803EBD10B5DA
:104C200096B04B4801A95022FBF72EFD90B19DF89C
:104C30000400FFF782FE592809D09DF80400FFF711
:104C40007CFEA0F15403584240EB030000E0012039
:104C5000404B1873404801A95022FBF715FD78B16D
:104C6000002101A8FFF72AFE0021044601A8FFF752
:104C700025FE80B2A4B2000A364B40EA0424DC814F
:104C8000364801A95022FBF7FFFC78B1002101A8AA
:104C9000FFF714FE0021044601A8FFF70FFE80B2C3
:104CA000A4B2000A2B4B40EA04241C822C4801A920
:104CB0005022FBF7E9FC28B101A80021FFF7FEFD17
:104CC000244B5882274801A95022FBF7DDFC78B11C
:104CD000002401A815A9FFF7EFFC234B18551598E0
:104CE00003783A2B04D10134062C01D00130F1E7CE
:104CF0001E4801A95022FBF7C7FC18B101A81549AD
:104D0000FFF759FF1A4801A95022FBF7BDFC18B163
:104D100001A81849FFF74FFF174801A95022FBF7D8
:104D2000B3FC18B101A81549FFF745FF144801A9C4
:104D30005022FBF7A9FC18B101A81249FFF73BFF6D
:104D4000114928221148FBF79FFC16B010BD00BF87
:104D50004F3F010004000010543F01005F3F01007D
:104D6000683F0100763F0100990000107E3F01007E
:104D7000873F0100080000108F3F01000C00001069
:104D8000963F0100180000101C0000109B3F01001E
:104D90000A4B0B491B68C8899A88904201D107F0D9
:104DA00063BE098A914201D107F098B8DB88B3F558
:104DB000C85F01D108F0B4B908F058BDEC0A001082
:104DC0000400001008B50AF0B9FB002821DB04F04C
:104DD00095FF05F063FF09F00BF90F48012104F07E
:104DE0004BFF0E484FF4167104F046FF0C4B1B7B33
:104DF00023B9FFF7BBFEFFF7D3FE05E00948062104
:104E000008F07CF808F07AF9034B01221A740020AC
:104E100008BD4FF0FF3008BD340200103C02001006
:104E2000040000109900001010B5436A13B9FFF791
:104E30009DFE0EE0084B828C1A80C28C5A80074B74
:104E4000028D1A80428D5A80054B028E408E1A8048
:104E50005880BDE81040A3E6F80F0010F40F0010D2
:104E6000BC0F0010164B70B51D885C88FFF762FB05
:104E7000284605F0D3FD000A80B2FFF7B9FB2E20CB
:104E8000FFF730FB284605F0C9FDC0B2FFF7B0FBC5
:104E90002E20FFF727FB204605F0C0FD000A80B258
:104EA000FFF7A6FB2E20FFF71DFB204605F0B6FD01
:104EB000C0B2FFF79DFB0A20BDE87040FFF712BBB0
:104EC000F80F0010F7B53E4D00232C7C6B82002CB0
:104ED00074D00AF0A3FB3B4E04463080374638B30B
:104EE000394C4FF40060237B657B43EA052505F0D0
:104EF00095FD85420AD105F015FF012004F054FF0D
:104F00003388002B4ED005F0B3FF0EE0237B647B8B
:104F100040F6060043EA042405F080FD844241D1B6
:104F200005F02AFF3388002B3CD00AF05DFB39E006
:104F3000284604F0B3FE002836D0284604F0A3FE2D
:104F4000019413E0019A214BF42101FB0232204B22
:104F500002201A6004F028FF3B8823B105F088FF87
:104F60000AF042FB0124019B01330193019B042BB6
:104F7000E8DD002311E0019A164B9201D218164B7E
:104F800005201A6004F010FF3B8823B105F070FF84
:104F90000AF02AFB0124019B01330193019B002BA2
:104FA000E9DD02E0012400E004460C4804F076FE4E
:104FB00020B10A4804F067FE05F088FE2046FEBDD9
:104FC00034020010D40A0010FC0F0010F00A001088
:104FD000EC0A001028130010E40A00103C02001034
:104FE00010B5094C204604F059FE40B9638A074ABF
:104FF00001339BB2528A63821BB2934203DDFFF7F7
:1050000061FF0028FBD110BD340200100400001025
:10501000704700BF00F5DE700368994203D3426811
:105020009B18994202D380680028F5D170470A4B3B
:105030001A6872B94FF48071996059605A614FF0E3
:10504000FF31C3F8D021054AD9604FF4001119612E
:105050001A600120704700BF4802001018BACEF550
:1050600011F007031CBFC3F1080303F00703D21AB2
:10507000C91842F001038161C2604B60282389187E
:105080004B60024B1B69C361704700BF48020010B0
:105090002DE9F041304D07462B680BB9FFF7C7FFEC
:1050A00017F1410F51D8296B2B4800294BD0446A86
:1050B0002837BC423ED986681830FFF7ABFFC3687B
:1050C000804613F0080F35D1A419013CE71BB7FB4C
:1050D000F6F7013F7743214B9F4288BFC6F1004757
:1050E00000200AF0C5FAD8F80020D8F804300446A9
:1050F000D31898421ED178420AF0BAFA0646002028
:105100000AF0B6FAB6F1FF3F14D0A04212D2241A28
:1051100010D0D8F804306A6A1B1BC8F80430D5F8E0
:10512000C8310F481B1B296B121BC5F8C831FFF78C
:1051300097FF0BE06A6A6B6B9A4206D9064B4FF0F9
:10514000FF325A6301E00C4600E00024201E18BF25
:105150000120BDE8F08100BF48020010FEFFFF7F84
:105160006002001001480021FFF7EEBAA43F0100E1
:105170002DE9F04FF42887B0A84C00F298810A2856
:1051800084BF00F10B0525F00705A76998BF10251E
:10519000EA0837FA02F111F0030FA04B24D001F016
:1051A000010585F00105AD1803F1400404EBC504C9
:1051B000A668B068844205D10122AA4027EA020706
:1051C0009F6107E09B6A984202D3A060C46001E03F
:1051D000FFF7C8FFED0045F00303736075196B68B6
:1051E00043F001036B6076E0186A854240F2448325
:1051F000002974D0012010FA02F686409140C6F1D1
:10520000000C4CEA060606EA0102514201EA0202DB
:10521000013A160B06F01006F240510901F00801A0
:1052200001EB060832FA01F18A0802F00402D140CB
:10523000904431FA00F202F00202D140904431FA77
:1052400000F20240904431FA02F203F1400A904425
:105250000AEBC8018E68B268914205D100FA08F0E5
:1052600027EA00079F6107E09B6A9A4202D38A609F
:10527000D16001E0FFF776FF4FEAC808C5EB0808E8
:1052800045F00303216A736006EB050948F001034A
:10529000C9F8043049F80880604AC1B1C908012042
:1052A0000AEBC10710FA01F19369D56A194203D1DB
:1052B00041EA0303936105E0BB68926A934202D21C
:1052C000FFF750FF3B46BD60DD60AB60EF60C4F8A8
:1052D0002080C4F82C9006F1080000F05CBEDA696A
:1052E000002A00F0C982514201EA0202013A100B81
:1052F00000F01000C240510901F008010E1832FA06
:1053000001F1880800F00400C1403618480800F098
:105310000200C1404A0802F00102D1403618B2181A
:10532000521803EB8203D3F848215368164623F042
:105330000708C5EB08080AE05A6822F00702521B6A
:10534000424528BF4246904638BF1E461A4613695A
:10535000002BF1D15369002BEED1A16A8E42C0F02F
:10536000868206EB050A564580F08182F768D6F8FA
:105370001890B74205D0B3688B421BD3DF60BB6087
:105380001AE0776917B106F1140307E037699FB196
:1053900006F1100302E007F1140317467A69002AA8
:1053A000F9D13A6912B107F11003F6E78B4201D344
:1053B0001A6001E0FFF7D6FEB9F1000F3CD0F269A8
:1053C000164B02F14C0104EB81018869864209D138
:1053D0008F61B7B9012111FA02F2D96921EA0202FB
:1053E000DA6129E09B6A994508D3D9F81030B342B5
:1053F0000CBFC9F81070C9F8147001E0FFF7B2FED5
:10540000D7B1A26A974215D33369C7F818904BB148
:10541000934205D33B619F6104E000BF4802001046
:10542000FFF7A0FE73693BB1A26A934202D37B618E
:105430009F6101E0FFF796FEB8F10F0F06D8A84470
:1054400048F00303736006EB080368E145F00303CB
:10545000216A736048F00103CAF804304AF80880F2
:10546000A84AF9B1C908012002F1400707EBC107BA
:1054700010FA01F19369D2F82C90194203D141EA54
:105480000303936105E0BB68926A934202D2FFF77F
:1054900069FE3B46C7F80890C3F80C90C9F808307D
:1054A000C9F80C70C4F82080C4F82CA0DAE110F11F
:1054B000410F00F2DF8100F10B05E06925F00705DF
:1054C000002800F0D9812A0AC5F1000923D0B2F5DD
:1054D000803F1FD2A2F580773F0C07F00807BA4043
:1054E000A2F58056360C06F00406B240A2F58041C3
:1054F000090C01F002018A40C7F10E07BE1B711AA8
:1055000001EBD233DA1D35FA02F202F0010202EBAE
:10551000430200E01F2204EB8203D3F84831002B42
:1055200031D01F2A1ABF4FEA5208C8F119084FF0AC
:10553000000805FA08F84FF0000C4F466646596817
:1055400021F00709C5EB0909B94504D2B9F1000FEB
:1055500012D04F461E4659694FEAD87909F104091D
:1055600053F8293011B1994201D102E061462BB1C3
:105570008C464FEA4808E2E71E4601E00B46B94672
:1055800073BB002E39D1022313FA02F253421343A4
:10559000034023D05A4202EA0303013B190B01F0F6
:1055A0001001CB405A0902F00802501833FA02F2F7
:1055B000910801F00401CA404018510801F00201AD
:1055C000CA40530803F00103DA404018C3189B187F
:1055D00004EB8303D3F8483100260EE01E460CE0AE
:1055E0005A68196922F00702521B4A452CBF4A46E5
:1055F0001E4601B959690B469146002BF0D1002E89
:1056000000F03A81236A5B1B994580F035813D4B60
:10561000996A8E42C0F02B817719BE4280F02781B3
:10562000D6F80C80D6F818A0B04507D0B3688B42E6
:1056300022D3C3F80C80C8F808301FE0726912B199
:1056400006F114030AE0D6F81080B8F1000F15D067
:1056500006F11003424601E008F114039046526936
:10566000002AF9D1D8F8102012B108F11003F5E79B
:105670008B4201D31A6001E0FFF774FDBAF1000F0D
:1056800044D0F2691F4B02F14C0104EB810188699F
:1056900086420CD1C1F81880B8F1000F18D1012151
:1056A00011FA02F2D96921EA0202DA612EE09B6A5C
:1056B0009A4508D3DAF81030B3420CBFCAF810800C
:1056C000CAF8148001E0FFF74DFDB8F1000F1DD0BE
:1056D000A26A904518D33369C8F818A043B1934221
:1056E00004D3C8F81030C3F8188001E0FFF73AFD82
:1056F00073695BB1A26A934206D3C8F81430C3F849
:10570000188003E048020010FFF72CFDB9F10F0FDD
:105710000AD8A94449F00303736006EB09035A68E9
:1057200042F001025A609DE045F00303736049F0C6
:1057300001037B604FEAD9031F2B47F809901CD85F
:105740009A4A012002F1400808EBC30810FA03F35B
:10575000A1690B4202D10B43936106E0D8F80830EF
:10576000926A934202D2FFF7FDFC4346C8F80870E4
:10577000DF60BB60C7F80C8074E05FEA192226D0B6
:10578000B2F5803F22D2A2F5807C4FEA1C4C0CF08F
:10579000080C02FA0CF2A2F58050000C00F0040094
:1057A0008240A2F58041090C01F002018A40CCF14F
:1057B0000E0CC0EB0C00411A01EBD233DA1D29FAB2
:1057C00002F202F0010202EB430200E01F224FF05E
:1057D000010808FA02F8D4F81CC0002118EA0C0FDE
:1057E000FA6179613961714B02F14C0009D148EAE3
:1057F0000C028000DA611A18183318189761B86122
:105800001EE003EB80031F2A9B6902D05208C2F1FD
:10581000190109FA01F2596821F00701494512D02E
:10582000D10F043153F8210003EB810C10B1520069
:105830000346F0E7A26A944512D343F82170BB6196
:10584000FF60BF600EE0A16A9A688B4208D38A426B
:1058500006D39F60D760FB600023BA60BB6101E0A4
:10586000FFF780FC16F1080040F0958304E0FFF795
:1058700079FC01E04FF0FF35216A4C4B8D4217D87F
:105880004A1B0F2AD86A07D94119D9621A6242F015
:1058900001034B608A5078E300221A62DA6241F019
:1058A0000303436041184B6843F001034B606FE30F
:1058B000596A8D42C0F061831B680BB9FFF7B7FBD3
:1058C000D4F8D031394E13F0040F7CD1316B29B1AB
:1058D00006F11800FFF79EFB814630BB002009F05F
:1058E000C7FEB0F1FF3F064667D0A36803F12F075C
:1058F0007F195B4207EA0303019363685A1E104253
:1059000007D00198B2185B42871B02EA0303FB1819
:105910000193274B019999424FD8084609F0A8FEF8
:10592000B042804672D0064638E3B368726A03F12B
:105930002F07BF1A5B427F1907EA03030193019AFD
:105940001B4B9A4239D8104609F092FED9F8002034
:10595000D9F804300646D318984240F01F83B0F1BE
:10596000FF3F2AD0804651E0114B019F9F4200F239
:105970001A8305F13002974280F01583A268C7F1BF
:10598000000902F12F08A8445242C7EB080808EAB0
:105990000208984500F20783404609F069FEB0F11D
:1059A000FF3F07D047440197FDE200BF48020010C7
:1059B000FEFFFF7F484609F05BFED4F8D03143F08C
:1059C0000403C4F8D031A36803F12F0040195B42EF
:1059D00018409B4B984200F2DD8209F049FE0646D2
:1059E0008046002009F044FEB6F1FF3F00F0D2826D
:1059F000B0F1FF3F00F0CE82864280F0CB82801B68
:105A000005F128039842019040F2C482D4F8C831CD
:105A10000198D4F8CC21C318934288BF894A266BD9
:105A2000C4F8C83188BFC2F8CC31864B1EBB9B6A14
:105A30000BB1984501D2C4F828800023C4F8E031A6
:105A400023680199E3634FF0FF33A3637E4BC4F8EF
:105A5000D481C4F8D81103F58072DB609B600833F1
:105A60009342FAD1019B79484146A3F1280215E0FF
:105A70009B6813B915E003F5EA7319685A6888182A
:105A80008045F5D191E28E420BD3464509D2019F64
:105A90006E48D2195A60626A3146BA18FFF7E0FAC6
:105AA00067E2A36A98453CBF664BC3F82880684B01
:105AB00003E09B68002B00F0768101981A6808EBE0
:105AC00000018A42F5D176E259680198C3F8008056
:105AD0000F1818F007001CBFC0F1080000F0070005
